:020000040800F2
:100000000050002021020008270200082B020008EF
:100010009D020008A1020008E9020008000000009B
:100020000000000000000000000000003103000894
:100030003503000800000000390300083D030008F4
:100040004D0300084D0300084D0300084D03000850
:100050004D0300084D0300084D0300084D03000840
:100060004D0300084D0300084D0300084D03000830
:100070004D0300084D0300084D0300084D03000820
:100080004D0300084D0300084D030008710A0008E5
:10009000B90A0008FD0A00084D0300084D030008D6
:1000A0004D0300084D0300084D0300084D030008F0
:1000B0004D0300084D0300084D0300084D030008E0
:1000C0004D0300084D0300084D0300084D030008D0
:1000D0004D030008891200084D0300084D03000875
:1000E0004D0300084D0300084D0300080000000008
:1000F0000000000000000000000000000000000000
:1001000000000000000000005FF808F100B583B0B7
:1001100000F0AAF9304B314A1360314A1360314B79
:10012000314A32498B4204D21168196004330432D7
:10013000F7E72A4B1A682E4B9A4200D0FEE7284B6D
:100140001A682C4B9A42F9D1234B2B4A13602B4A45
:1001500013602B4B02E000221A600433294A9342B9
:10016000F9D3254B1B6813B9244B1B6803B1FEE779
:1001700000F086F9694601A800F022F9224C234BD1
:10018000E41AA4100025AC4214DC214C214BE41AE3
:10019000A4100025AC4213DC0099019800F0E4FFA4
:1001A00005461D4C1D4BE41AA410002C0EDC2846FD
:1001B00000F0E2F8154B53F8253098470135E2E797
:1001C000144B53F8253098470135E3E7013C134BB6
:1001D00053F824309847E8E7BABADECA0000002096
:1001E00088000020000000207C1C00088C000020FB
:1001F00078563412325476988C000020C0010020CA
:100200008C000020C4010020780300087803000857
:1002100078030008780300087803000878030008D2
:1002200008B5FFF773FF00BEFEE71EF0040F0CBF1A
:10023000EFF30880EFF309807146414A10472DE93A
:10024000F04182B004468846124B5E6B9F6B9D6AFC
:100250001B6B13F0020F03D00E4BDB6A002B0CDB81
:100260000D4800F0B5F8CDF800803B4632462946EF
:10027000204600F009F900BEFEE74BF6AB6100F046
:100280007DF90028ECD0034B4FF00042DA6202B057
:10029000BDE8F08100ED00E01C1C000800BEFEE798
:1002A0001EF0040F0CBFEFF30880EFF309807146D6
:1002B000244A10472DE9F04182B004468846084B95
:1002C0005E6B9F6B9D6A074800F082F8CDF8008056
:1002D0003B4632462946204600F0D6F800BEFEE7EF
:1002E00000ED00E02C1C00081EF0040F0CBFEFF323
:1002F0000880EFF309807146134A10472DE9F04159
:1003000082B004468846084B5E6B9F6B9D6A074827
:1003100000F05EF8CDF800803B4632462946204684
:1003200000F0B2F800BEFEE700ED00E0381C000867
:1003300000BEFEE700BEFEE700BEFEE7704700001D
:100340003F020008B5020008FD02000800BEFEE7FB
:100350007C1C0008000000208C0000207C1C000891
:1003600000000000000000008C000020C4010020FC
:08037000000000000000000085
:10037800FEE7000008B503460C4A12685AB10B4A5A
:100388001068033323F003030344094A934206D851
:10039800064A136008BD054A06491160EFE700F0F8
:1003A8007BFF0C2303604FF0FF30F3E79000002041
:1003B800004C0020C401002001230360014B0B60A6
:1003C800704700BF040000200FB400B583B004AB31
:1003D80053F8042B01938021064800F08FFF002872
:1003E80003DD0146034800F037F803B05DF804EB7D
:1003F80004B07047980000202DE9F04385B004460A
:100408000F4643560BB10E461EE0042528462146EA
:10041800ABBE0446384605B0BDE8F08314F9011BAD
:1004280004AA1A4402F8101C0133AB42F6D304AAFA
:100438001344002203F8102C4FF00408E946404604
:100448004946ABBE8046761B002EE3D03546102EBB
:1004580028BF10250023E8E708B5FFF7CDFF08BD42
:1004680008B500F0FDF8024A024B9A6008BD00BFCB
:100478000000000800ED00E008B500F019F908BD1B
:10048800F8B504460D4617461E462748FFF79CFF59
:1004980021682648FFF798FF61682548FFF794FF11
:1004A800A1682448FFF790FFE1682348FFF78CFF15
:1004B80021692248FFF788FF61692148FFF784FF17
:1004C800A1692048FFF780FFE1691F48FFF77CFF1B
:1004D8001E48FFF779FF29461D48FFF775FF1D4C99
:1004E800E16A1D48FFF770FF216B1C48FFF76CFF9E
:1004F800E16B1B48FFF768FF15F0800F0AD115F470
:10050800004F0CD11748FFF75FFF06991648FFF711
:100518005BFFF8BD39461548FFF756FFEFE7314650
:100528001348FFF751FFEDE7001B0008101B0008F8
:10053800201B0008301B0008401B0008501B000847
:10054800601B0008701B0008801B0008901B000837
:100558009C1B000800ED00E0AC1B0008BC1B000859
:10056800CC1B0008FC1B0008041C0008DC1B00084E
:10057800EC1B000883691A888A4201D00020704762
:100588000268033A012A03D80233836101207047C5
:100598000020704782B00023019300932C4A13680F
:1005A80043F4803313602A4B1B6803F40033009331
:1005B800019B01330193009B1BB9019BB3F5A06F0D
:1005C800F1D1234B1B6813F4003F06D0012300939D
:1005D800009B012B04D002B0704700230093F7E77B
:1005E8001C4B1A6842F010021A601A6822F00302C3
:1005F8001A601A6842F002021A60A3F580535A681A
:100608005A605A685A605A6842F480625A605A6856
:1006180022F47C125A605A6842F4E8125A601A6846
:1006280042F080721A600A4B1B6813F0007FFAD000
:10063800074B5A6822F003025A605A6842F00202D5
:100648005A60034B5B6803F00C03082BF9D1C2E72F
:10065800001002400020024008B5FFF79BFF08BDCC
:1006680008B5104B1A6842F001021A6059680E4A20
:100678000A405A601A6822F0847222F480321A60A2
:100688001A6822F480221A605A6822F4FE025A601C
:100698004FF41F029A60FFF7DFFF044B4FF0006230
:1006A8009A6008BD001002400000FFF800ED00E06D
:1006B8001F4B5B6803F00C03042B15D0082B17D0D5
:1006C8001BB11C4B1C4A1A6002E01A4B1A4A1A60EA
:1006D800174B5B68C3F30313184AD35CDAB21549A6
:1006E8000B68D3400B607047124B134A1A60EFE750
:1006F8000F4A53685268C3F38343023312F4803FAE
:100708000AD00B4A526812F4003F0BD00C4A02FB85
:1007180003F3084A1360DBE7094A02FB03F3054ABF
:100728001360D5E7044A02FB03F3024A1360CFE7DC
:10073800001002401C00002000127A000C0000206B
:1007480000093D0030B41D4B01F11B0212019D1838
:100758009C58640D04709A58C2F3400282726A6809
:1007680002F00F02427203EB0113D3F8B821427072
:10077800D3F8B821120A8270B3F8BA21C27093F87C
:10078800BB210271D3F8BC214271D3F8BC21120AF3
:100798008271B3F8BE21C27193F8BF31037231B1CF
:1007A800064A136943F02003136130BC7047034ABB
:1007B800D36843F02003D360F7E700BF006400402C
:1007C80010B501210C2000F0B7F902210C2000F02F
:1007D80021FA00210B2000F0AFF901210B2000F0D5
:1007E80019FA132000F006FD142000F003FD204A3A
:1007F800136823F0020343F0050323F0080343F0D2
:10080800700323F4803323F08A031360536923F0C1
:10081800010343F0020323F00C0343F0100323F415
:10082800766323F460335361D36912491940124B3C
:100838000B43D361D2F8004244F00104002307E0DF
:1008480003F190010A4A002042F821000133DBB28B
:100858001B2BF5D9064A6FF07043C2F80432002307
:10086800C2F80C3224F00104C2F8004210BD00BFE7
:100878000064004000FE80FCFF014B03054A13683A
:1008880023F003031360034B5B6813F0010FFAD1E5
:10089800704700BF0064004018B1034A10601E2072
:1008A80070472820704700BF1801002010B483B09B
:1008B80000238DF807309DF80730DBB2022B0FD8E4
:1008C8003B4B9B689DF807201A32D34013F0010F69
:1008D80006D19DF807300133DBB28DF80730EAE71F
:1008E8009DF80730DBB2022B60D89DF80730304AFC
:1008F80018331B010021D1509DF8073004781833B4
:100908001B01D15841EA4451D150837A012B43D07D
:100918000279C3781B0443EA0263827843EA02231C
:1009280042789DF807101343214A02EB0111C1F8E0
:100938008831017AC3791B0443EA0163817943EA68
:10094800012344799DF80710234302EB0112C2F8F2
:100958008C319DF80730164A183302EB0313596897
:1009680021F00F0159609DF80730407A183302EBE7
:100978000313596801435960536943F001035361F4
:100988009DF8073018331B01D15841F00101D150AF
:10099800002003B010BC70479DF80730114618338B
:1009A8001B01D25842F00202CA50D2E70120F0E7F8
:1009B800006400402A4B1B78372B4FD8F0B513F052
:1009C800010F38D190F800C04FEA4C5C4278012AF8
:1009D8002ED0244CD4F8001241F00101C4F80012C2
:1009E8009A08012595406FEA050ED4F81C220EEAF4
:1009F8000202C4F81C225E08903654F8267047EAB2
:100A08000C0744F826708078F8B9D4F8140200EA84
:100A18000E00C4F81402134821F00101C0F80012B6
:100A28002A43C0F81C2201330D4A13701E20F0BD62
:100A38004CF4801CCDE790F800C04FEA4C1C42787B
:100A4800012AC6D14CF0100CC3E70128E3D1054CAC
:100A5800D4F814022843C4F81402DCE702207047D3
:100A68001C01002000640040104B9B6813F0010F2C
:100A780003D043F001030D4A93600C4B9B6813F4B9
:100A8800807F03D043F48073084A9360074B9B68C8
:100A980013F4803F03D043F48033044A9360034A3D
:100AA800536923F001035361704700BF006400409D
:100AB8000D4BDB6813F0030F00D1704710B5002110
:100AC8000A48FFF73FFE0A4B1C6864B1074B1A7AC5
:100AD800597A42EA0122997A42EA01421868596829
:100AE80022F07F42A04710BD00640040380100207A
:100AF800180100200D4B1B6913F0030F00D170473C
:100B080010B501210A48FFF71DFE0A4B1C6864B1A5
:100B1800074B1A7A597A42EA0122997A42EA014243
:100B28001868596822F07F42A04710BD0064004051
:100B3800380100201801002010B400F00F030F281E
:100B48001FD8072B0ED8304802689B000F249C4002
:100B580022EA04020260026801FA03F31343036005
:100B680010BC704728484468083B9A000F239340FC
:100B780024EA03034360436801FA02F21A4342601D
:100B8800EEE71F281ED8072B0DD8204802689B00C7
:100B98000F249C4022EA04020260026801FA03F36F
:100BA80013430360DCE719484268083B9B000F24A5
:100BB8009C4022EA04024260426801FA03F31343AC
:100BC8004360CDE72F28CBD8072B0ED9104A5068A1
:100BD800083B9B000F249C4020EA040050605068AA
:100BE80001FA03F303435360BAE7094802689B001C
:100BF8000F249C4022EA04020260026801FA03F30F
:100C080013430360ACE700BF00080140000C01403B
:100C18000010014010B400F00F030A1FD2B2012ADD
:100C28001FD9FF220F2838D8FF2A08D0012A1CD044
:100C38004F4CE2680120984022EA0002E260072B4C
:100C48001AD84B4A10689B00023301249C4020EAC2
:100C580004001060106801FA03F30343136010BC2A
:100C6800704701F001024908DCE7414CE2680120C5
:100C780098400243E260E2E7083BDBB23C4A506836
:100C88009B00023301249C4020EA04005060506815
:100C980001FA03F303435360E1E71F2832D8FF2A20
:100CA80008D0012A17D0334CE2680120984022EA84
:100CB8000002E260072B15D82E4A10689B00023309
:100CC80001249C4020EA04001060106801FA03F334
:100CD80003431360C3E7274CE268012098400243AE
:100CE800E260E7E7083BDBB2224A50689B00023328
:100CF80001249C4020EA0400506050689940014358
:100D08005160ACE72F28AAD8FF2A08D0012A18D0AA
:100D1800194CE2680120984022EA0002E260072BA1
:100D280016D9083BDBB2144A50689B0002330124F1
:100D38009C4020EA0400506050689940014351608B
:100D48008DE70D4CE268012098400243E260E6E737
:100D5800094A10689B00023301249C4020EA0400E1
:100D68001060106801FA03F30343136077E700BFCC
:100D780000080140000C014000100140014B1860C0
:100D8800704700BFBC01002084B030B585B008AC06
:100D980084E80F0055238DF80030BDF85450C5F392
:100DA8000B05072D30D8EBB28DF809309DF80930C6
:100DB800DBB28DF801309DF809300133DBB28DF8D4
:100DC80009300023ADF80E3011E0BDF80E20BDF853
:100DD8000E30013308A90A44927804A90B4403F899
:100DE8000F2CBDF80E3001339BB2ADF80E30BDF8B4
:100DF8000E309BB29D42E8D86846FFF757FD05B014
:100E0800BDE8304004B070472B0A43F010038DF85A
:100E18000130EBB28DF802300123ADF80E3012E04C
:100E2800BDF80E20013ABDF80E30013308A90A4476
:100E3800927804A90B4403F80F2CBDF80E30013347
:100E48009BB2ADF80E30BDF80E309BB2062BE7D939
:100E580008238DF809306846FFF728FDBDF80E30E5
:100E6800013B9BB2ADF80E30012434E0BDF80E1002
:100E7800BDF80C30013308A80144897804A803445C
:100E880003F80F1CBDF80E3001339BB2ADF80E30DD
:100E9800BDF80C3001339BB2ADF80C30BDF80C3006
:100EA8009BB2062B04D8BDF80E309BB29342DDD31B
:100EB800BDF80C309BB2062B05D8BDF80C300133B9
:100EC800DBB28DF809306846FFF7F0FC0134E4B274
:100ED8000E2C00D900242A46BDF80E309BB29D4244
:100EE8008DD944F020038DF801300023ADF80C3083
:100EF800D4E700002DE9F04790B00BAB83E807007A
:100F08009DF82C30552B02D010B0BDE8F0879DF825
:100F18002D2088490B7056234B70130945D19DF835
:100F28003520013A0B46898E62F30B0199869B8E18
:100F3800C3F30B03072BE7D87F4B00221A8009E085
:100F4800511C10AB0B4413F8130C7A4B1A449070D5
:100F5800794B1980774B9B8EC3F30B03764A128823
:100F68009342EDD8754BD3F80080724CD4F800A0AA
:100F7800D4F80490D4F808E0D4F80CC004F11005B3
:100F88006F4630343E4628686968AA68EB680FC621
:100F980010353746A542F5D12868696803C7504619
:100FA800494672466346C047AEE7012B11D0022B73
:100FB8004BD0032BA8D102F00F02614B1A709DF899
:100FC8002E205A709DF82F209A705E4B1B68984708
:100FD8009AE7584B998E6FF30B019986120102F02C
:100FE800F002998E62F30B0199869A8EC2F30B0276
:100FF8009DF82E100A43998E62F30B0199869A8EFA
:10100800BDF83C3062F30B03ADF83C304A4B00228C
:101018001A800AE09A1C10A90A4412F8131C454ABF
:101028001A4491700133444A1380434B1B88052BA3
:10103800F0D9BDF83C30C3F30B03063BBDF83C20A8
:1010480063F30B02ADF83C205EE702F00F028DF867
:101058003B203D4B1B789DF83B20D2B293427FF456
:1010680053AF0133DBB2384A13700F2B07D0BDF8EA
:101078003C30C3F30B03082B20D801222DE0134684
:1010880000221A70F3E72C48028810A9194411F8B5
:10109800134C284911448C700132028001339BB2F1
:1010A800072BF0D9BDF83C30C3F30B03083BBDF860
:1010B8003C2063F30B02ADF83C2025E70123EFE762
:1010C8001D48038810A9114411F8134C19491944F3
:1010D8008C70013292B201330380BDF83C30C3F307
:1010E8000B0301339A42EBDD144BD3F80080114C0B
:1010F800D4F800A0D4F80490D4F808E0D4F80CC0D0
:1011080004F110056F4630343E4628686968AA68BD
:10111800EB680FC610353746A542F5D128686968CF
:1011280003C75046494672466346C047024B0022F1
:101138001A80E9E6800100201E010020BC01002081
:10114800B8010020440100202000002084B08DE870
:101158000F00024B00221A7004B0704720010020D3
:1011680000B59BB055238DF8303056228DF83120CC
:1011780019258DF8325011228DF8332001248DF86D
:101188003440BDF86420032161F30B02ADF86420FC
:101198008DF82C3000238DF82D308DF82E3000F08E
:1011A8003FF80221084600F045F82946204600F09D
:1011B80041F8FFF705FBFFF761FB0BA8FFF7FAFB08
:1011C8000A48FFF769FB0A48FFF7D8FD6C4610ADDF
:1011D8000FCD0FC40FCD0FC495E8030044F8040BDE
:1011E80021800CAB0FCBFFF7CFFDFEE7FD0E00080B
:1011F800551100081F2809D93F2806D82038C0B241
:10120800012303FA00F0044B18607047012303FA26
:1012180000F0024B1860704704E100E000E100E0D4
:10122800034B81221A60043300221A60704700BF02
:10123800001002401F291CD801280BD010B1022829
:1012480010D070470B480368012202FA01F11943D4
:101258000160704708480368012202FA01F1194346
:101268000160704705480368012202FA01F1194339
:1012780001607047141002401C1002401810024010
:1012880008B5044B1B6803B19847024B5B6803B170
:10129800984708BD24010020014B1868704700BF1B
:1012A8002400002030B5141E05469BB0184605DA08
:1012B8008B234FF0FF302B601BB030BD4FF402730F
:1012C800ADF80C300CBF234604F1FF3302930593AD
:1012D8004FF6FF7300910491ADF80E3002461E9B45
:1012E8006946284600F072F8431CBCBF8B232B606C
:1012F800002CE1D00022009B1A70DDE707B50093AF
:1013080013460A46014603480068FFF7CBFF03B0BF
:101318005DF804FB240000202DE9F0478E68824622
:101328009E420C469046994637D88A8912F4906FA7
:1013380031D00223256809696F1A656905EB4505EF
:1013480095FBF3F509F101033B449D4238BF1D4667
:10135800530530D5294600F035FB064650B90C2315
:101368004FF0FF30CAF80030A38943F04003A3814F
:10137800BDE8F0873A46216900F0B4FAA38923F45E
:10138800906343F08003A38126613E4426604E4665
:101398006561ED1BA5604E4500D94E463246414673
:1013A800206800F0AAFAA36800209B1BA3602368AA
:1013B8001E442660DCE72A4600F05EFB064600284D
:1013C800E2D12169504600F0B1FAC8E72DE9F04FA3
:1013D8009DB003938B8980461D060C4616460FD593
:1013E8000B696BB9402100F0EDFA2060206128B943
:1013F8000C23C8F800304FF0FF30C7E0402363618A
:101408000023099320238DF8293030234FF0010B56
:101418008DF82A3037463D4615F8013B0BB1252B90
:101428003ED1B7EB060A0BD053463246214640461A
:10143800FFF772FF013000F0A480099B5344099321
:101448003B78002B00F09D8000234FF0FF32CDE960
:101458000523049307938DF853301A932F460522DA
:1014680017F8011B4F4800F02FFA049BD0B9D90692
:1014780044BF20228DF853201A0744BF2B228DF831
:1014880053202A782A2A15D02F4600200A25079AA1
:10149800394611F8013B303B092B4DD9B8B10FE063
:1014A8002F46B8E73F4A3D46801A0BFA00F018432A
:1014B8000490D3E7039A111D12680391002A01DBF7
:1014C800079204E0524243F00203079204933B78E8
:1014D8002E2B0CD17B782A2B33D1039B02371A1D74
:1014E8001B680392002BB8BF4FF0FF3305932E4DB6
:1014F80003223978284600F0E7F938B14023401B29
:1015080003FA00F0049B0137034304933978062259
:1015180026487E1C8DF8281000F0D6F9002838D00F
:10152800234B13BB039B073323F0070308330393B1
:10153800099B4B4409936DE705FB023201200F46D6
:10154800A6E700230A25194601370593384610F8FF
:10155800012B303A092A03D9002BC8D00591C6E7D8
:1015680005FB012101230746F0E703AB0093224660
:10157800104B04A94046AFF30080B0F1FF3F81460D
:10158800D6D1A3895B063FF536AF09981DB0BDE8F3
:10159800F08F03AB00932246064B04A9404600F0A7
:1015A80081F8EAE7481C00084E1C0008521C000895
:1015B80000000000211300082DE9F04791461F465E
:1015C8008A680B6906469342B8BF1346C9F80030CB
:1015D80091F843200C46DDF8208012B10133C9F898
:1015E80000302368990642BFD9F800300233C9F8A1
:1015F8000030256815F0060507D104F1190AE368DB
:10160800D9F800209B1AAB4229DC94F843302268B1
:10161800003318BF012392062ED404F14302394641
:101628003046C047013021D02368E56803F006033F
:10163800042B18BF0025D9F800204FF0000908BF77
:10164800AD1AA368226908BF25EAE5759342C4BFAD
:101658009B1AED181A344D451AD1002008E00123D1
:10166800524639463046C047013003D14FF0FF306B
:10167800BDE8F0870135C2E73020E11881F8430062
:101688005A1C94F845102244023382F84310C4E7E8
:101698000123224639463046C0470130E6D009F1D9
:1016A8000109D8E72DE9F04301F1430C0C46097E06
:1016B80085B06E291746064698460C9A00F0B38006
:1016C80022D8632936D00AD8002900F0B9805829D1
:1016D80000F0838004F1420584F8421032E0642966
:1016E80001D06929F6D120681368050603F10401C1
:1016F8002AD51B681160002B03DA2D225B4284F87F
:1017080043206F480A2239E0732900F09D8008D8E9
:101718006F2920D07029DDD1236843F0200323608E
:1017280003E0752917D07829D4D17823654884F83F
:10173800453055E0136804F14205191D1B68116016
:1017480084F8423001238CE01B6810F0400F1160D0
:1017580018BF1BB2CFE713682568181D106028064C
:1017680001D51B6802E06806FBD51B886F2914BFEA
:101778000A2208225248002184F843106568002D87
:10178800A560C0F29580216821F004012160002B3A
:101798003DD1002D40F08E806546082A0BD1236884
:1017A800DB0708D5236962689A42DEBF302305F853
:1017B800013C05F1FF35ACEB05032361CDF8008052
:1017C8003B4603AA21463046FFF7F6FE01304DD1CD
:1017D8004FF0FF3005B0BDE8F083394884F8451074
:1017E800136821681D1D1B6815600A060BD5CA07FA
:1017F80044BF41F0200121601BB9226822F0200279
:1018080022601022B7E74D0648BF9BB2EFE7654656
:10181800B3FBF2F102FB1133C35C05F8013D0B4643
:101828000029F5D1B9E713682568181D61691060AA
:1018380028061B6801D5196002E06A06FBD51980E5
:10184800002365462361B9E71368191D11601D68F7
:1018580062680021284600F037F808B1401B606034
:1018680063682361002384F84330A7E723692A4685
:1018780039463046C0470130AAD023689B0713D4A5
:10188800E068039B9842B8BF1846A3E701234A467D
:1018980039463046C04701309AD00135E368039A8B
:1018A8009B1AAB42F2DCEBE7002504F11909F5E7D6
:1018B800002BACD1037804F1420584F842306CE780
:1018C800591C00086A1C000810B5C9B202449042AD
:1018D800034601D1002303E01C7801308C42F6D185
:1018E800184610BD10B5431E0A44914200D110BDE0
:1018F80011F8014B03F8014FF7E7884210B501EBE7
:10190800020307D8421E99420AD011F8014B02F887
:10191800014FF8E78342F5D98118D21AD34200D192
:1019280010BD13F8014D01F8014DF7E738B505462C
:10193800002943D051F8043C0C1F002BB8BFE41811
:1019480000F0D0F81E4A1368104633B9636014607B
:101958002846BDE8384000F0C6B8A3420BD9216834
:101968006218934201BF1A685B685218226063606C
:101978000460EDE713465A680AB1A242FAD9196819
:101988005818A0420BD120680144581882421960A7
:10199800DED110685268014419605A60D8E702D94C
:1019A8000C232B60D4E7206821188A4201BF1168F4
:1019B80052680918216062605C60C9E738BD00BFE1
:1019C8002C01002070B5CD1C25F0030508350C2D21
:1019D80038BF0C25002D064601DBA94203D90C238C
:1019E8003360002070BD00F07DF8214A146821465C
:1019F80091B9204C23681BB9304600F063F8206089
:101A08002946304600F05EF8431C24D10C233046AA
:101A1800336000F068F8E4E70B685B1B18D40B2B05
:101A28000FD90B60CC18CD50304600F05CF804F1AB
:101A38000B00231D20F00700C31AD3D05A42E250EE
:101A4800D0E74B688C4216BF636013600C46EBE727
:101A58000C464968CCE7C41C24F00304A04205D016
:101A6800211A304600F02EF80130CFD02560DBE790
:101A78002C01002030010020F8B5074614460E4618
:101A880021B9BDE8F8401146FFF79CBF22B9FFF71E
:101A98004DFF25462846F8BD00F026F8A0420FD293
:101AA80021463846FFF78EFF05460028F2D031461A
:101AB8002246FFF717FF31463846FFF737FFE9E7B9
:101AC8003546E7E738B50023054C05460846236048
:101AD800FEF750FC431C02D1236803B12B6038BDCC
:101AE800340100207047704751F8043C181F002B40
:101AF800BCBF0B58C0187047537461636B20667283
:101B0800616D653A0A000000205230203D202025F2
:101B18003038580A00000000205231203D2020258E
:101B28003038580A00000000205232203D2020257D
:101B38003038580A00000000205233203D2020256C
:101B48003038580A0000000020523132203D20254C
:101B58003038580A00000000204C52203D20202533
:101B68003038580A00000000205043203D2020252E
:101B78003038580A0000000020505352203D2025DC
:101B88003038580A000000004653522F4641523A56
:101B98000A0000002043465352203D2020253038BB
:101BA800580A00002048465352203D20202530384E
:101BB800580A00002044465352203D202025303842
:101BC800580A00002041465352203D202025303835
:101BD800580A0000204D4D464152203D20253038FE
:101BE800580A00002042464152203D202025303826
:101BF800580A00004D6973630A000000204C522FF8
:101C08004558435F52455455524E3D20253038586B
:101C18000A0000005B486172644661756C745D0A75
:101C2800000000005B4275734661756C745D0A00C4
:101C38005B55736167654661756C745D0A000000E9
:101C4800232D302B2000686C4C006566674546479D
:101C58000030313233343536373839414243444520
:101C6800460030313233343536373839616263648F
:031C78006566009E
:101C7C007856341294000020000000000000000090
:101C8C0000000000010203040607080900A24A0430
:101C9C0001FFFFFF280000200000000000000000F2
:101CAC000000000000000000000000000000000028
:101CBC000000000000000000000000000000000018
:101CCC000000000000000000000000000000000008
:101CDC0000000000000000000000000000000000F8
:101CEC0000000000000000000000000000000000E8
:0C1CFC0000000000000000003254769848
:040000050800010DE1
:00000001FF
