:020000040800F2
:100000000050002021020008270200082B020008EF
:100010009D020008A1020008E9020008000000009B
:100020000000000000000000000000002141000866
:100030003503000800000000C14100080542000827
:100040004D0300084D0300084D0300084D03000850
:100050004D0300084D0300084D0300084D03000840
:100060004D0300084D0300084D0300084D03000830
:100070004D0300084D0300084D0300084D03000820
:100080004D0300084D0300084D080008FD0B000853
:10009000450C0008890C00084D0300084D030008BA
:1000A0004D0300084D0300084D0300084D030008F0
:1000B0006D270008C1270008152800084D03000817
:1000C0004D0300084D0300084D0300084D030008D0
:1000D0004D030008692900084D0300084D0300087E
:1000E0004D0300084D0300084D0300080000000008
:1000F0000000000000000000000000000000000000
:1001000000000000000000005FF808F100B583B0B7
:1001100000F0AEF9304B314A1360314A1360314B75
:10012000314A32498B4204D21168196004330432D7
:10013000F7E72A4B1A682E4B9A4200D0FEE7284B6D
:100140001A682C4B9A42F9D1234B2B4A13602B4A45
:1001500013602B4B02E000221A600433294A9342B9
:10016000F9D3254B1B6813B9244B1B6803B1FEE779
:1001700000F08AF9694601A800F026F9224C234BC9
:10018000E41AA4100025AC4214DC214C214BE41AE3
:10019000A4100025AC4213DC0099019803F01AFC6E
:1001A00005461D4C1D4BE41AA410002C0EDC2846FD
:1001B00000F0E6F8154B53F8253098470135E2E793
:1001C000144B53F8253098470135E3E7013C134BB6
:1001D00053F824309847E8E7BABADECA0000002096
:1001E0009C0000200000002008730008A0000020F0
:1001F0007856341232547698A0000020BC4000207B
:10020000A0000020C0400020780300087803000808
:1002100078030008780300087803000878030008D2
:1002200008B5FFF773FF00BEFEE71EF0040F0CBF1A
:10023000EFF30880EFF309807146414A10472DE93A
:10024000F04182B004468846124B5E6B9F6B9D6AFC
:100250001B6B13F0020F03D00E4BDB6A002B0CDB81
:100260000D4800F0B9F8CDF800803B4632462946EB
:10027000204600F00DF900BEFEE74BF6AB6100F042
:1002800081F90028ECD0034B4FF00042DA6202B053
:10029000BDE8F08100ED00E03872000800BEFEE726
:1002A0001EF0040F0CBFEFF30880EFF309807146D6
:1002B000244A10472DE9F04182B004468846084B95
:1002C0005E6B9F6B9D6A074800F086F8CDF8008052
:1002D0003B4632462946204600F0DAF800BEFEE7EB
:1002E00000ED00E0487200081EF0040F0CBFEFF3B1
:1002F0000880EFF309807146134A10472DE9F04159
:1003000082B004468846084B5E6B9F6B9D6A074827
:1003100000F062F8CDF800803B4632462946204680
:1003200000F0B6F800BEFEE700ED00E054720008F1
:1003300000BEFEE700BEFEE700BEFEE7704700001D
:100340003F020008B5020008FD02000800BEFEE7FB
:100350000873000800000020A000002008730008B7
:100360000000000000000000A0000020C0400020AD
:08037000000000000000000085
:10038000FEE7000008B503460C4A12685AB10B4A52
:100390001068033323F003030344094A934206D849
:1003A000064A136008BD054A06491160EFE706F0EA
:1003B0007BFA0C2303604FF0FF30F3E7A40000202A
:1003C000004C0020C040002001230360014B0B6063
:1003D000704700BF040000200FB400B583B004AB29
:1003E00053F8042B01938021064806F0A3FA002855
:1003F00003DD0146034800F037F803B05DF804EB75
:1004000004B07047AC0000202DE9F04385B00446ED
:100410000F4643560BB10E461EE0042528462146E2
:10042000ABBE0446384605B0BDE8F08314F9011BA5
:1004300004AA1A4402F8101C0133AB42F6D304AAF2
:100440001344002203F8102C4FF00408E9464046FC
:100450004946ABBE8046761B002EE3D03546102EB3
:1004600028BF10250023E8E708B5FFF7CDFF08BD3A
:1004700008B500F0FDF8024A024B9A6008BD00BFC3
:100480000000000800ED00E008B500F019F908BD13
:10049000F8B504460D4617461E462748FFF79CFF51
:1004A00021682648FFF798FF61682548FFF794FF09
:1004B000A1682448FFF790FFE1682348FFF78CFF0D
:1004C00021692248FFF788FF61692148FFF784FF0F
:1004D000A1692048FFF780FFE1691F48FFF77CFF13
:1004E0001E48FFF779FF29461D48FFF775FF1D4C91
:1004F000E16A1D48FFF770FF216B1C48FFF76CFF96
:10050000E16B1B48FFF768FF15F0800F0AD115F467
:10051000004F0CD11748FFF75FFF06991648FFF709
:100520005BFFF8BD39461548FFF756FFEFE7314648
:100530001348FFF751FFEDE71C7100082C7100080C
:100540003C7100084C7100085C7100086C71000877
:100550007C7100088C7100089C710008AC71000867
:10056000B871000800ED00E0C8710008D8710008FB
:10057000E87100081872000820720008F87100087D
:100580000872000883691A888A4201D000207047E7
:100590000268033A012A03D80233836101207047BD
:1005A0000020704782B00023019300932C4A136807
:1005B00043F4803313602A4B1B6803F40033009329
:1005C000019B01330193009B1BB9019BB3F5A06F05
:1005D000F1D1234B1B6813F4003F06D00123009395
:1005E000009B012B04D002B0704700230093F7E773
:1005F0001C4B1A6842F010021A601A6822F00302BB
:100600001A601A6842F002021A60A3F580535A6811
:100610005A605A685A605A6842F480625A605A684E
:1006200022F47C125A605A6842F4E8125A601A683E
:1006300042F080721A600A4B1B6813F0007FFAD0F8
:10064000074B5A6822F003025A605A6842F00202CD
:100650005A60034B5B6803F00C03082BF9D1C2E727
:10066000001002400020024008B5FFF79BFF08BDC4
:1006700008B5104B1A6842F001021A6059680E4A18
:100680000A405A601A6822F0847222F480321A609A
:100690001A6822F480221A605A6822F4FE025A6014
:1006A0004FF41F029A60FFF7DFFF044B4FF0006228
:1006B0009A6008BD001002400000FFF800ED00E065
:1006C0001F4B5B6803F00C03042B15D0082B17D0CD
:1006D0001BB11C4B1C4A1A6002E01A4B1A4A1A60E2
:1006E000174B5B68C3F30313184AD35CDAB215499E
:1006F0000B68D3400B607047124B134A1A60EFE748
:100700000F4A53685268C3F38343023312F4803FA5
:100710000AD00B4A526812F4003F0BD00C4A02FB7D
:1007200003F3084A1360DBE7094A02FB03F3054AB7
:100730001360D5E7044A02FB03F3024A1360CFE7D4
:10074000001002401C00002000127A000C00002063
:1007500000093D000B4B00225A609A60DA629A63EE
:100760009A6842F001029A609A6842F480129A6094
:100770009A6842F460229A609A6822F400629A6051
:10078000704700BF0024014070B41F4AD36A441E62
:1007900043EA0453D36201230DE01B4E746BCA1865
:1007A00012F8015C5A1E02EB820205FA02F22243A1
:1007B00072630133DBB2834224D8062BEDD90C2BB4
:1007C00011D9102BF5D8A3F10C02D2B20E4EF46A57
:1007D000CD1815F8015C013A02EB820205FA02F22B
:1007E0002243F262E5E79A1FD2B2074E346BCD186E
:1007F00015F8015C013A02EB820205FA02F222438B
:100800003263D6E770BC7047002401400E4A9368FB
:1008100043F48003936000230B4A126812F0020F26
:1008200006D141F28732934202D801339BB2F3E7FB
:1008300041F28832934203D0034BD86C80B27047A8
:100840004FF6FF70704700BF0024014008B5034B0E
:10085000D86C034B1B6880B2984708BD0024014048
:100860002C01002030B41D4B01F11B0212019D1818
:100870009C58640D04709A58C2F3400282726A68F0
:1008800002F00F02427203EB0113D3F8B821427059
:10089000D3F8B821120A8270B3F8BA21C27093F863
:1008A000BB210271D3F8BC214271D3F8BC21120ADA
:1008B0008271B3F8BE21C27193F8BF31037231B1B6
:1008C000064A136943F02003136130BC7047034AA2
:1008D000D36843F02003D360F7E700BF0064004013
:1008E00038B501210C2000F017FB02210C2000F08C
:1008F00081FB00210B2000F00FFB01210B2000F0F9
:1009000079FB132001F07AF8142001F077F8002326
:1009100015E0324D05EBC30210211171002050711A
:100920002F4C03EB43025100621845F8332003F1CA
:100930000A056552FF21D17090700133DBB2012BA3
:10094000E7D9264B1A680A211171FB2151719A6867
:10095000012111719B68FD225A71224A136823F00C
:10096000020343F0050323F0080343F0700323F46C
:10097000803323F08A031360536923F0010343F0AB
:10098000020323F00C0343F0100323F4766323F4F3
:1009900060335361D36914491940144B0B43D3613D
:1009A000D2F8004244F00104002307E003F1900173
:1009B0000C4A002042F821000133DBB21B2BF5D991
:1009C000084A6FF07043C2F804320023C2F80C32B8
:1009D00024F00104C2F8004238BD00BF34010020F9
:1009E000440100200064004000FE80FCFF014B0336
:1009F000054A136823F003031360034B5B6813F08D
:100A0000010FFAD1704700BF0064004018B1034ADB
:100A100010601E2070472820704700BF3001002062
:100A200010B582B000238DF807309DF80730DBB297
:100A3000022B0FD83F4B9B689DF807201A32D340FA
:100A400013F0010F06D19DF807300133DBB28DF8AA
:100A50000730EAE79DF80730DBB2022B59D89DF842
:100A60000730344A18331B010021D1509DF807305C
:100A7000047818331B01D15841EA4451D150837A8C
:100A8000012B4CD00279C3781B0443EA02638278BD
:100A900043EA022342789DF807101343254A02EBEC
:100AA0000111C1F88831017AC3791B0443EA01635B
:100AB000817943EA012344799DF80710234302EB2F
:100AC0000112C2F88C319DF807301A4A183302EB34
:100AD0000313596821F00F0159609DF80730407ADF
:100AE000183302EB0313596801435960536943F00B
:100AF000010353619DF8073018331B01D15841F0B1
:100B00000101D15000210C4800F046FB002002B04A
:100B100010BD0121084800F03FFB0120F7E79DF8D8
:100B20000730114618331B01D25842F00202CA5056
:100B3000C9E700BF0064004034010020F8B52C4B29
:100B40001B78372B3AD813F0010F40D107787F0577
:100B50004278012A38D0274CD4F8001241F0010124
:100B6000C4F800129A08012595406FEA050CD4F8E4
:100B70001C220CEA020EC4F81CE25E08903654F8FF
:100B80002620174344F82670807840BBD4F814021E
:100B900000EA0C00C4F81402164821F00101C0F864
:100BA00000124EEA0502C0F81C220133104A1370ED
:100BB0000021114800F0F0FA1E20F8BD01210E4876
:100BC00000F0EAFA0220F8E747F48017C3E7077855
:100BD0007F014278012ABED147F01007BBE7012808
:100BE000DAD1044CD4F814022843C4F81402D3E731
:100BF00050010020006400403C010020104B9B6825
:100C000013F0010F03D043F001030D4A93600C4B26
:100C10009B6813F4807F03D043F48073084A936089
:100C2000074B9B6813F4803F03D043F48033044A9E
:100C30009360034A536923F001035361704700BF77
:100C4000006400400D4BDB6813F0030F00D17047C8
:100C500010B500210A48FFF705FE0A4B1C6864B175
:100C6000074B1A7A597A42EA0122997A42EA0142FA
:100C70001868596822F07F42A04710BD0064004008
:100C8000E83F0020300100200D4B1B6913F0030FDB
:100C900000D1704710B501210A48FFF7E3FD0A4B68
:100CA0001C6864B1074B1A7A597A42EA0122997A90
:100CB00042EA01421868596822F07F42A04710BDFD
:100CC00000640040E83F00203001002008B500F03B
:100CD00001FE08BD10B504460146012000F07CFE6F
:100CE0002146022000F078FE10BD08B50138042826
:100CF0000CD8DFE800F0030C151E27000121084680
:100D000000F022FE0121022000F01EFE08BD02219B
:100D1000012000F019FE0221084600F015FEF5E75B
:100D20000021012000F010FE0121022000F00CFE45
:100D3000ECE70121084600F007FE0021022000F048
:100D400003FEE3E70021012000F0FEFD0021022068
:100D500000F0FAFDDAE708B5FFF7C7FF08BD0000AD
:100D60000F280CD91F2814D92F2810D80D4B9B6899
:100D700000F00F0023FA00F000F0010307E00A4B37
:100D80009B6800F00F0023FA00F000F00103184602
:100D90007047064B9B6800F00F0023FA00F000F04C
:100DA0000103F4E70010014000080140000C01407D
:100DB0000F281AD801290FD0002941D101F1804113
:100DC00001F584310B6900F00F0000F110020120E1
:100DD000904003430B6170471F4A136900F00F01F5
:100DE000012088401843106170471F2816D8012938
:100DF0000BD029BB19490B6900F00F0000F110025C
:100E00000120904003430B617047144A136900F0BE
:100E10000F01012088401843106170472F280FD818
:100E200001290ED061B901F1804101F588310B69CA
:100E300000F00F001030012202FA00F018430861A0
:100E4000704707490B6900F00F00012202FA00F019
:100E500003430B61704700BF00080140000C0140D4
:100E60000010014010B40F281AD8284BDB6800F09E
:100E70000F00C34013F0010309D1244C2269012162
:100E800001FA00F010432061184610BC70471F4C57
:100E900022691030012101FA00F010432061F3E7CC
:100EA0001F2818D81A4BDB6800F00F00C34013F05E
:100EB000010307D1164C2269012101FA00F0104309
:100EC0002061E1E7124C22691030012101FA00F0A3
:100ED00010432061D8E72F28D6D80D4BDB6800F0EF
:100EE0000F00C34013F0010308D00A4C22691030F0
:100EF000012101FA00F010432061C5E7054C226989
:100F0000012101FA00F010432061BDE70008014013
:100F1000000C01400010014010B400F00F030F2836
:100F20001FD8072B0ED8304802689B000F249C4026
:100F300022EA04020260026801FA03F31343036029
:100F400010BC704728484468083B9A000F23934020
:100F500024EA03034360436801FA02F21A43426041
:100F6000EEE71F281ED8072B0DD8204802689B00EB
:100F70000F249C4022EA04020260026801FA03F393
:100F800013430360DCE719484268083B9B000F24C9
:100F90009C4022EA04024260426801FA03F31343D0
:100FA0004360CDE72F28CBD8072B0ED9104A5068C5
:100FB000083B9B000F249C4020EA040050605068CE
:100FC00001FA03F303435360BAE7094802689B0040
:100FD0000F249C4022EA04020260026801FA03F333
:100FE00013430360ACE700BF00080140000C014060
:100FF0000010014010B400F00F030A1FD2B2012A02
:101000001FD9FF220F2838D8FF2A08D0012A1CD068
:101010004F4CE2680120984022EA0002E260072B70
:101020001AD84B4A10689B00023301249C4020EAE6
:1010300004001060106801FA03F30343136010BC4E
:10104000704701F001024908DCE7414CE2680120E9
:1010500098400243E260E2E7083BDBB23C4A50685A
:101060009B00023301249C4020EA04005060506839
:1010700001FA03F303435360E1E71F2832D8FF2A44
:1010800008D0012A17D0334CE2680120984022EAA8
:101090000002E260072B15D82E4A10689B0002332D
:1010A00001249C4020EA04001060106801FA03F358
:1010B00003431360C3E7274CE268012098400243D2
:1010C000E260E7E7083BDBB2224A50689B0002334C
:1010D00001249C4020EA040050605068994001437C
:1010E0005160ACE72F28AAD8FF2A08D0012A18D0CF
:1010F000194CE2680120984022EA0002E260072BC6
:1011000016D9083BDBB2144A50689B000233012415
:101110009C4020EA040050605068994001435160AF
:101120008DE70D4CE268012098400243E260E6E75B
:10113000094A10689B00023301249C4020EA040005
:101140001060106801FA03F30343136077E700BFF0
:1011500000080140000C014000100140037943F0F9
:10116000070303F0EF0303710268927812F0010F96
:1011700003D123F008030371704743F008030371A0
:1011800070470223037103689B7813F0010F01D0AD
:101190000A2303717047000038B5334B1C78012CCB
:1011A00002D00024204638BD0546F9B190F905303B
:1011B000026892F90420934208DA002B03DB013322
:1011C00043710024EEE700244471EBE7037913F048
:1011D000010F01D00024E5E7FFF7C0FF2B682A7953
:1011E0001988A02000F034FA0224DBE790F90530DA
:1011F000006890F90520934209DD002B03DD0023F0
:101200006B710C46CEE7013B6B710C46CAE72A793D
:1012100012F0010F02D112F0100F1FD002F0EE02F7
:101220002A7112F0040F0FD0837813F0040F01D14C
:101230000C46B7E72846FFF7A4FF2B682A791988E0
:10124000A02000F005FAADE72846FFF79AFF2B68CB
:101250002A791988A02000F0FBF9A3E70188A020D3
:1012600000F0F6F99EE700BF21000020014B186056
:10127000704700BF7040002084B030B585B008AC26
:1012800084E80F0055238DF80030BDF85450C5F3A5
:101290000B05072D30D8EBB28DF809309DF80930D9
:1012A000DBB28DF801309DF809300133DBB28DF8E7
:1012B00009300023ADF80E3011E0BDF80E20BDF866
:1012C0000E30013308A90A44927804A90B4403F8AC
:1012D0000F2CBDF80E3001339BB2ADF80E30BDF8C7
:1012E0000E309BB29D42E8D86846FFF799FB05B0E7
:1012F000BDE8304004B070472B0A43F010038DF86E
:101300000130EBB28DF802300123ADF80E3012E05F
:10131000BDF80E20013ABDF80E30013308A90A4489
:10132000927804A90B4403F80F2CBDF80E3001335A
:101330009BB2ADF80E30BDF80E309BB2062BE7D94C
:1013400008238DF809306846FFF76AFBBDF80E30B8
:10135000013B9BB2ADF80E30012434E0BDF80E1015
:10136000BDF80C30013308A80144897804A803446F
:1013700003F80F1CBDF80E3001339BB2ADF80E30F0
:10138000BDF80C3001339BB2ADF80C30BDF80C3019
:101390009BB2062B04D8BDF80E309BB29342DDD32E
:1013A000BDF80C309BB2062B05D8BDF80C300133CC
:1013B000DBB28DF809306846FFF732FB0134E4B246
:1013C0000E2C00D900242A46BDF80E309BB29D4257
:1013D0008DD944F020038DF801300023ADF80C3096
:1013E000D4E700002DE9F04790B00BAB83E807008D
:1013F0009DF82C30552B02D010B0BDE8F0879DF839
:101400002D2088490B7056234B70130945D19DF848
:101410003520013A0B46898E62F30B0199869B8E2B
:10142000C3F30B03072BE7D87F4B00221A8009E098
:10143000511C10AB0B4413F8130C7A4B1A449070E8
:10144000794B1980774B9B8EC3F30B03764A128836
:101450009342EDD8754BD3F80080724CD4F800A0BD
:10146000D4F80490D4F808E0D4F80CC004F11005C6
:101470006F4630343E4628686968AA68EB680FC634
:1014800010353746A542F5D12868696803C750462C
:10149000494672466346C047AEE7012B11D0022B86
:1014A0004BD0032BA8D102F00F02614B1A709DF8AC
:1014B0002E205A709DF82F209A705E4B1B6898471B
:1014C0009AE7584B998E6FF30B019986120102F03F
:1014D000F002998E62F30B0199869A8EC2F30B0289
:1014E0009DF82E100A43998E62F30B0199869A8E0D
:1014F000BDF83C3062F30B03ADF83C304A4B0022A0
:101500001A800AE09A1C10A90A4412F8131C454AD2
:101510001A4491700133444A1380434B1B88052BB6
:10152000F0D9BDF83C30C3F30B03063BBDF83C20BB
:1015300063F30B02ADF83C205EE702F00F028DF87A
:101540003B203D4B1B789DF83B20D2B293427FF469
:1015500053AF0133DBB2384A13700F2B07D0BDF8FD
:101560003C30C3F30B03082B20D801222DE0134697
:1015700000221A70F3E72C48028810A9194411F8C8
:10158000134C284911448C700132028001339BB204
:10159000072BF0D9BDF83C30C3F30B03083BBDF873
:1015A0003C2063F30B02ADF83C2025E70123EFE775
:1015B0001D48038810A9114411F8134C1949194406
:1015C0008C70013292B201330380BDF83C30C3F31A
:1015D0000B0301339A42EBDD144BD3F80080114C1E
:1015E000D4F800A0D4F80490D4F808E0D4F80CC0E3
:1015F00004F110056F4630343E4628686968AA68D1
:10160000EB680FC610353746A542F5D128686968E2
:1016100003C75046494672466346C047024B002204
:101620001A80E9E63040002052010020704000207E
:10163000684000206C40002020000020012302E0D0
:1016400000BF01339BB248F2E8029342F8D97047D9
:1016500000B583B00B0A8DF804308DF805108DF8B5
:101660000620019BADF800301B0C8DF802300322E0
:10167000694600F093F8FFF7E1FF03B05DF804FB63
:1016800000B583B00B4601220DF1070100F0C2F84E
:101690009DF8070003B05DF804FB00B583B00B0AAA
:1016A0008DF804308DF80510FF238DF806300322E5
:1016B00001A900F073F8FFF7C1FF03B05DF804FB68
:1016C0002DE9F04180460F4615461E46002407E0EE
:1016D000E11989B24046FFF7D3FF30550134A4B277
:1016E000AC42F5D3BDE8F081F8B507460E46154685
:1016F000002406E0A11989B23846FFF7CEFF013475
:10170000A4B2AC42F6D3F8BD2DE9F043A3B007462E
:101710000E461546002413E09A1C22A90A44FF2114
:1017200002F8841C0133DBB213F0800FF4D0822264
:1017300001A9384600F032F8FFF780FF0134A4B267
:10174000AC4211D2F3019BB24FEA13295FFA83F83E
:10175000802200210DF1060005F0B7F88DF8049005
:101760008DF805800023DFE723B0BDE8F08300009B
:10177000094B08225A604FF47442DA6103221A625C
:101780001A6842F001021A601A6842F480621A6014
:101790004FF480429A6070470054004010B483B008
:1017A0001B4C236843F001032360002A2CD014460D
:1017B000174A136843F480731360154B5B6913F089
:1017C000010FFAD0124B1861114B5B6913F0020F35
:1017D000FAD00F4B9B6901930022A2420FD20C4B0F
:1017E0005B6913F0800FF8D0885C094B1861084BD7
:1017F0005B6913F0800FFAD00132D2B2EDE7044AF0
:10180000136843F40073136003B010BC704700BF4B
:101810000054004030B482B02D4C256845F00105DD
:101820002560256845F480752560294C646914F0AD
:10183000010FFAD0264C2061254C646914F0020F88
:10184000FAD0234CA56901951D0A2561204C6469D5
:1018500014F0800FFAD0DBB21D4C23611C4B5B6986
:1018600013F0800FFAD01A4C236843F4807323607E
:10187000174B5B6913F0010FFAD040F00100144BD5
:101880001861134B5B6913F0020FFAD0104B9B6980
:101890000193002009E00E4B5B6913F0400FFAD072
:1018A0000B4B1B690B540130C0B2904208D2531E3F
:1018B0009842F0D1064C236823F480632360EAE762
:1018C000034A136843F40073136002B030BC7047DE
:1018D0000054004008B501210720FFF71DFB00213F
:1018E0000720FFF787FB01210820FFF715FB0021E8
:1018F0000820FFF77FFB01211E20FFF70DFB0021D1
:101900001E20FFF777FB01211F20FFF705FB0021B9
:101910001F20FFF76FFB02211020FFF7FDFA0221C5
:101920001020FFF767FB02211120FFF7F5FA0221D3
:101930001120FFF75FFB04211E2000F031F9042184
:101940001E2000F02DF908BD38B504460D460128CB
:1019500002D0022C20D038BD61B1012913D0022958
:10196000F7D100210720FFF723FA01210820FFF714
:101970001FFAEEE700210720FFF71AFA00210820DE
:10198000FFF716FAE5E701210720FFF711FA00211A
:101990000820FFF70DFADCE765B1012D13D0022D09
:1019A000D9D100211E20FFF703FA01211F20FFF7E4
:1019B000FFF9D0E700211E20FFF7FAF900211F20D0
:1019C000FFF7F6F9C7E701211E20FFF7F1F9002123
:1019D0001F20FFF7EDF9BEE708B5012802D0022865
:1019E00006D008BD0A466421212000F051FAF8E72C
:1019F0000A466421222000F04BFAF2E71F2809D999
:101A00003F2806D82038C0B2012303FA00F0044B67
:101A100018607047012303FA00F0024B186070470A
:101A200004E100E000E100E0014B024A1A60704767
:101A30000CED00E00400FA05034B81221A60043328
:101A400000221A60704700BF001002401F291CD8F6
:101A500001280BD010B1022810D070470B48036842
:101A6000012202FA01F11943016070470848036836
:101A7000012202FA01F11943016070470548036829
:101A8000012202FA01F1194301607047141002406B
:101A90001C1002401810024038B5394B1B78002B3F
:101AA0005DD0002000F08EF94FF47A7303FB00F054
:101AB000344B83FB0023C017C0EBE320324B18806C
:101AC00000220221104600F09DF91621002000F0AE
:101AD0007BFC2E4B1B78322B03D92B4B1B88002B06
:101AE00043D000212A48FFF757FB284B1A7802EB16
:101AF000420293009BB2244A128803F114018A42E5
:101B000002DC143B9A4203DA01212248FFF744FB2E
:101B100000212048FFF740FB1B4B1B887D2B29D859
:101B200000211D48FFF738FB38BD1A4D05EBC302F5
:101B30001021117100245471184803EB4302510025
:101B4000421845F83320947003F10F0444521921D0
:101B50001171F6215171FF21D1700133DBB2022BDB
:101B6000E3D9074B01221A709BE701210848FFF7D0
:101B700013FBD9E701210848FFF70EFBD0E700BFB0
:101B80005401002089B5F81482010020F33F0020A1
:101B90006801002058010020600100207001002031
:101BA000032816D8DFE800F002070C11013989B2CA
:101BB000084B19807047013989B2074B198070476B
:101BC000013989B2054B19807047013989B2044B3C
:101BD0001980704728000040280400402808004071
:101BE000280C0040032800F2CD80DFE800F0023628
:101BF000689A4FF080431A8892B222F0100292B293
:101C00001A801A8842F008021A801A8892B222F0CA
:101C1000020292B21A801A8842F004021A805A4ACA
:101C200011805A490A8842F001020A801A8842F05B
:101C300001021A80564B1B8813F0010FFAD04FF0A7
:101C40008042138843F002031380103213889BB242
:101C500023F001039BB2138070474E4B1A8892B257
:101C600022F0100292B21A801A8842F008021A80FA
:101C70001A8892B222F0020292B21A801A8842F0B6
:101C800004021A80444A118044490A8842F0010241
:101C90000A801A8842F001021A80414B1B8813F017
:101CA000010FFAD03B4A138843F00203138010322D
:101CB00013889BB223F001039BB213807047394B0A
:101CC0001A8892B222F0100292B21A801A8842F058
:101CD00008021A801A8892B222F0020292B21A8086
:101CE0001A8842F004021A802F4A11802F490A886C
:101CF00042F001020A801A8842F001021A802C4B3D
:101D00001B8813F0010FFAD0264A138843F0020310
:101D10001380103213889BB223F001039BB213800F
:101D20007047244B1A8892B222F0100292B21A80A5
:101D30001A8842F008021A801A8892B222F002022F
:101D400092B21A801A8842F004021A801A4A11804C
:101D50001A490A8842F001020A801A8842F00102F8
:101D60001A80174B1B8813F0010FFAD0114A138801
:101D700043F002031380103213889BB223F0010357
:101D80009BB21380704700BF2C000040140000403D
:101D900010000040000400402C04004014040040E7
:101DA00010040040000800402C08004014080040C7
:101DB00010080040000C00402C0C0040140C0040A7
:101DC000100C0040032813D8DFE800F002060A0ECA
:101DD000084B188880B27047074B188880B270474C
:101DE000064B188880B27047054B188880B2704740
:101DF00000207047240000402404004024080040D4
:101E0000240C0040012905D0032838D8DFE800F071
:101E100020262C32032832D8DFE800F002080E1406
:101E2000174B1A80083B00221A807047154B1A8006
:101E3000083B00221A807047134B1A80083B00228F
:101E40001A807047114B1A80083B00221A80704795
:101E500000230B4A1380083A138070470023094A75
:101E60001380083A138070470023074A1380083A0A
:101E7000138070470023054A1380083A1380704787
:101E80002C0000402C0400402C0800402C0C00408A
:101E90001538172800F23182DFE810F018004300EF
:101EA0006E0099002F022F022F022F022F022F0205
:101EB000C400EE0018015E012F022F022F022F0234
:101EC0002F022F028801B201DC010602944B1A8016
:101ED000944A138843F0600313800832138843F058
:101EE000010313804FF080431A8892B222F010024F
:101EF00092B21A801A8892B222F0080292B21A8024
:101F00001A8892B222F0020292B21A801A8842F023
:101F100004021A80844A11801A8842F001021A8051
:101F20007047824B1A807F4A138843F4C043138062
:101F30000832138843F0100313804FF080431A884F
:101F400092B222F0100292B21A801A8892B222F053
:101F5000080292B21A801A8892B222F0020292B259
:101F60001A801A8842F004021A806F4A11801A8877
:101F700042F001021A8070476D4B1A806D4A138837
:101F800043F0600313800432138843F4807313809A
:101F90004FF080431A8892B222F0100292B21A8057
:101FA0001A8892B222F0080292B21A801A8892B26B
:101FB00022F0020292B21A801A8842F004021A80B9
:101FC000594A11801A8842F001021A8070475A4B10
:101FD0001A80584A138843F4C0431380043213888C
:101FE00043F4805313804FF080431A8892B222F05A
:101FF000100292B21A801A8892B222F0080292B2AB
:102000001A801A8892B222F0020292B21A801A88BA
:1020100042F004021A80444A11801A8842F00102F8
:102020001A807047454B1A80454A138843F0600375
:1020300013800832138843F001031380414B1A8840
:1020400092B222F0100292B21A801A8892B222F052
:10205000080292B21A801A8892B222F0020292B258
:102060001A801A8842F004021A80374A11801A88AE
:1020700042F001021A807047344B1A80304A1388AC
:1020800043F4C04313800832138843F010031380D5
:102090002C4B1A8892B222F0100292B21A801A883F
:1020A00092B222F0080292B21A801A8892B222F0FA
:1020B000020292B21A801A8842F004021A80224A5E
:1020C00011801A8842F001021A807047204B1A8052
:1020D000204A138843F0600313800432138843F4CA
:1020E00080731380174B1A8892B222F0100292B2BA
:1020F0001A801A8892B222F0080292B21A801A88C4
:1021000092B222F0020292B21A801A8842F00402BD
:102110001A800D4A11801A8842F001021A80704715
:1021200034000040180000402C00004038000040FF
:102130003C0000401C0000404000004034040040CF
:1021400018040040000400402C0400403804004003
:102150003C0400401C040040684B1A80684A138805
:1021600043F4C04313800432138843F48053138034
:10217000644B1A8892B222F0100292B21A801A8826
:1021800092B222F0080292B21A801A8892B222F019
:10219000020292B21A801A8842F004021A805A4A45
:1021A00011801A8842F001021A807047574B1A803A
:1021B000574A138843F0600313800832138843F0B2
:1021C00001031380534B1A8892B222F0100292B28C
:1021D0001A801A8892B222F0080292B21A801A88E3
:1021E00092B222F0020292B21A801A8842F00402DD
:1021F0001A80494A11801A8842F001021A807047F9
:10220000464B1A80424A138843F4C0431380083275
:10221000138843F0100313803E4B1A8892B222F0C9
:10222000100292B21A801A8892B222F0080292B278
:102230001A801A8892B222F0020292B21A801A8888
:1022400042F004021A80344A11801A8842F00102D6
:102250001A807047324B1A80324A138843F0600369
:1022600013800432138843F480731380294B1A8837
:1022700092B222F0100292B21A801A8892B222F020
:10228000080292B21A801A8892B222F0020292B226
:102290001A801A8842F004021A801F4A11801A8894
:1022A00042F001021A8070471F4B1A801D4A1388A2
:1022B00043F4C04313800432138843F480531380E3
:1022C000144B1A8892B222F0100292B21A801A8825
:1022D00092B222F0080292B21A801A8892B222F0C8
:1022E000020292B21A801A8842F004021A800A4A44
:1022F00011801A8842F001021A80704740040040A1
:102300001C040040000400402C040040340800403D
:1023100018080040000800402C0800403808004021
:102320003C0800401C08004040080040012905D03E
:10233000032842D8DFE800F0212A323A03283CD8AB
:10234000DFE800F002090F154FF08042138843F0D8
:10235000010313807047194A138843F00103138067
:102360007047174A138843F0010313807047154ADA
:10237000138843F00103138070474FF080421388A5
:102380009BB223F001039BB2138070470B4A138862
:102390009BB223F001039BB213807047084A138855
:1023A0009BB223F001039BB213807047054A138848
:1023B0009BB223F001039BB21380704700040040DE
:1023C00000080040000C0040012800F0998018B17E
:1023D000022800F0278170479D4B1A8842F00102C5
:1023E0001A801A8842F002021A801A8842F0040207
:1023F0001A8024334FF6FF721A80152902D016294D
:1024000040D07047934B1A8842F001021A801A8814
:1024100092B222F0020292B21A801A8892B222F08C
:10242000100292B21A801A8892B222F0200292B25E
:102430001A801A8892B222F0400292B21A801A8848
:1024400092B222F0800292B21A80834A13889BB221
:1024500023F002039BB21380183A138843F0100351
:10246000138013889BB223F020039BB21380138840
:1024700043F0400313804FF08042138843F0010380
:1024800013807047734B1A8842F480721A801A883E
:1024900092B222F4007292B21A801A8892B222F496
:1024A000805292B21A801A8892B222F4005292B2EA
:1024B0001A801A8892B222F4804292B21A801A8844
:1024C000C2F30E021A80644A13889BB223F02003E1
:1024D0009BB21380183A13889BB223F010039BB26F
:1024E0001380138843F020031380138843F04003C4
:1024F00013804FF08042138843F00103138070472C
:10250000564B1A8842F001021A801A8842F00202E1
:102510001A801A8842F004021A8024334FF6FF72A0
:102520001A801F2902D020293FD070474C4B1A88AF
:1025300042F001021A801A8892B222F0020292B28C
:102540001A801A8892B222F0100292B21A801A8867
:1025500092B222F0200292B21A801A8892B222F02D
:10256000400292B21A801A8892B222F0800292B28D
:102570001A803C4A13889BB223F002039BB213805B
:10258000183A138843F01003138013889BB223F08A
:1025900020039BB21380138843F040031380083A52
:1025A000138843F00103138070472D4B1A8842F4BF
:1025B00080721A801A8892B222F4007292B21A8043
:1025C0001A8892B222F4805292B21A801A8892B279
:1025D00022F4005292B21A801A8892B222F48042F7
:1025E00092B21A801A88C2F30E021A801D4A13880A
:1025F0009BB223F020039BB21380183A13889BB23E
:1026000023F010039BB21380138843F02003138040
:10261000138843F040031380083A138843F0010302
:1026200013807047104B1A8842F001021A801A88F2
:1026300042F002021A801A8842F004021A802433FF
:102640004FF6FF721A80152910D02A294DD07047F5
:10265000080000401800004020000040080400402E
:102660001804004020040040080800403D4B1A8830
:1026700042F001021A801A8892B222F0020292B24B
:102680001A801A8892B222F0100292B21A801A8826
:1026900092B222F0200292B21A801A8892B222F0EC
:1026A000400292B21A801A8892B222F0800292B24C
:1026B0001A802D4A13889BB223F002039BB2138029
:1026C000183A138843F01003138013889BB223F049
:1026D00020039BB21380138843F040031380083A11
:1026E000138843F00103138070471E4B1A8842F48D
:1026F00080721A801A8892B222F4007292B21A8002
:102700001A8892B222F4805292B21A801A8892B237
:1027100022F4005292B21A801A8892B222F48042B5
:1027200092B21A801A88C2F30E021A800E4A1388D7
:102730009BB223F020039BB21380183A13889BB2FC
:1027400023F010039BB21380138843F020031380FF
:10275000138843F040031380083A138843F00103C1
:1027600013807047180800402008004008B50F4B40
:102770009B787BB94FF08042138843F002031380AB
:102780000B4B00221A800B4A13889BB223F00103E3
:102790009BB21380084B9B689847084A13889BB2EA
:1027A00023F001039BB2138008BD00BF9C010020F1
:1027B0002C0000400C00004084010020100000406C
:1027C00008B50E4BDB7873B90D4A138843F002034A
:1027D00013800C4B00221A800B4A13889BB223F003
:1027E00001039BB21380094BDB689847084A1388A2
:1027F0009BB223F001039BB2138008BD9C01002013
:10280000000400402C0400400C040040840100201F
:102810001004004008B50E4B1B7973B90D4A13889C
:1028200043F0020313800C4B00221A800B4A1388DA
:102830009BB223F001039BB21380094B1B6998479D
:10284000084A13889BB223F001039BB2138008BD92
:102850009C010020000800402C0800400C080040AB
:10286000840100201008004001282BD0234B40F2A7
:1028700041329A60DA6842F00402DA60DA6842F0C3
:102880000802DA60DA6842F40052DA6000221A6064
:102890000023012B31D810B4194803EB4302510037
:1028A00042180024947003F1160444520A21117155
:1028B000F6215171FF21D1700133DBB2012BEBD92D
:1028C00010BC70470F4BDA6842F02002DA6040F229
:1028D00041329A60DA6842F00402DA60DA6842F063
:1028E0000802DA60DA6842F40052DA60DA6842F02C
:1028F0002002DA6000221A60CAE7704700440040F4
:10290000AC0100200038014001281CD00023144AEB
:10291000126812F0200F18D1B3F57A7F15D2013367
:102920009BB2F4E701339BB20E4A126812F0200FFB
:1029300002D1B3F57A7FF5D3B3F57A7F0CD0094B8A
:102940005868C0B270470023EEE7B3F57A7F05D030
:10295000034B5868C0B27047FF207047FF20704794
:10296000004400400038014008B5044B1B6803B127
:102970009847024B5B6803B1984708BDA40100204B
:1029800030B599B055238DF8283056238DF829306D
:10299000BDF85C30032262F30B03ADF85C307F239B
:1029A0008DF82A308DF82B008DF82C106C460EAD6A
:1029B0000FCD0FC40FCD0FC495E8030044F8040BEE
:1029C00021800AAB0FCBFEF757FC19B030BD0000D9
:1029D00084B008B50DF1080C8CE80F009DF80A00D2
:1029E00010281ED0112823D0142825D0192827D02C
:1029F000222829D02E282BD034282DD0362836D086
:102A000037283FD03E2848D085284AD1274B1B780D
:102A1000032B02D07F21FFF7B3FF02A800F08EF84E
:102A200002E0604600F0B6F8BDE8084004B0704728
:102A300002A800F023F9F7E702A800F063F8F3E733
:102A400002A800F03FF9EFE702A800F0E9F9EBE790
:102A500002A800F04DFCE7E7144B1B78022B02D0D4
:102A60007F21FFF78DFF02A800F0AEFADCE70F4BE5
:102A70001B78022B02D07F21FFF782FF02A800F013
:102A800087FBD1E7094B1B78022B02D07F21FFF790
:102A900077FF02A800F014FBC6E702A800F054FB81
:102AA000C2E71121FFF76CFFBEE700BF2200002044
:102AB00030B599B055238DF8283056238DF829303C
:102AC000BDF85C3061F30B03ADF85C30002306E029
:102AD000C45C18AA1A4402F8364C0133DBB28B42AC
:102AE000F6D36C460EAD0FCD0FC40FCD0FC495E8D5
:102AF000030044F8040B21800AAB0FCBFEF7BCFBAC
:102B000019B030BD00B583B0838EC3F30B03012B26
:102B100006D013211420FFF733FF03B05DF804FB48
:102B200018220021A020FEF7DFFD02A8542300F8A0
:102B3000043D0121FFF7BCFFEFE7000000B583B0C3
:102B4000838EC3F30B03022B08D1C378012B0CD067
:102B5000022B17D10E4A0221117009E013218520A2
:102B6000FFF70EFF03B05DF804FB094A0121117065
:102B7000C5228DF804208DF80530022101A8FFF749
:102B800097FFEFE712218520FFF7FAFEEAE700BF83
:102B90002100002000B583B0838EC3F30B03022B0A
:102BA0001BD1C378012B1FD0022B2ED0032B3BD07F
:102BB000042B56D12D4B1B78022B4DD02C4B9B89CF
:102BC00002A820F8043D0221FFF772FF294B0022E2
:102BD0001A70264B04221A7003E013211020FFF70D
:102BE000CFFE03B05DF804FB214B1B8802A820F840
:102BF000043D0221FFF75CFF1E4B00221A700123E7
:102C00001A4A13701C4A1370EBE7194B9B8802A8F1
:102C100020F8043D0221FFF74BFF164B00221A70EB
:102C2000124B02221A70DCE7104B1B78022B0ED0DD
:102C30000F4B1B8902A820F8043D0221FFF738FF43
:102C40000C4B00221A70094B03221A70C9E722218B
:102C50001020FFF795FEC4E722211020FFF790FE19
:102C6000BFE712211020FFF78BFEBAE722000020F9
:102C700064720008B80100202100002000B583B074
:102C8000838EC3F30B03022B07D1C378032B0BD026
:102C900012211120FFF774FE03E013211120FFF72A
:102CA0006FFE03B05DF804FB054B1B8802A820F8FB
:102CB000043D0221FFF7FCFEFEF7B6FEF1E700BF80
:102CC00074720008F0B589B000AF838EC3F30B03B4
:102CD000032B0AD10546C3780F2B0DD0112B69D0D9
:102CE00012211920FFF74CFE03E013211920FFF7F2
:102CF00047FE2437BD46F0BD07F108031822002126
:102D0000A020FEF7DDFC00231C460EE0002107F1A9
:102D100020021A4402F8181C05E007F120021144B1
:102D2000002201F8182C0133DBB2172B0DD81946FD
:102D300007F120021A4412F8182CFF2AE6D028794D
:102D40000242EAD00134E4B2EDE762006E4602F1DD
:102D50000A0323F00703ADEB030D6D46033259213F
:102D6000684603F0B2FD0F238DF801301F238DF864
:102D700002300023032201E00133DBB2172B11D80C
:102D800007F12001194411F8181C0029F4D0AB54A4
:102D9000511C07F12000184410F8180C6854023236
:102DA000D2B2E9E761000331C9B22846FFF780FEDD
:102DB000B5469EE707F1080318220021A020FEF780
:102DC0007FFC002318460EE0002107F120021A4480
:102DD00002F8181C05E007F120021144002201F856
:102DE000182C0133DBB2172B0DD8194607F120023E
:102DF0001A4412F8182CFF2AE6D02C792242EAD085
:102E00000130C0B2EDE759233B7111237B711F23C1
:102E1000BB71F87104217818FFF74AFE69E70000DA
:102E200070B586B001252C468BE06E1CF6B2614B66
:102E30001A44927806AB2B4403F8142C5E4B1B68A3
:102E40009847AB1CDBB206AA164406F8140C0335EF
:102E5000EDB2C0F30720134403F8140C6FE06E1CAE
:102E6000F6B2544B1A44927806AB2B4403F8142C58
:102E7000524B1B689847AB1CDBB206AA164406F8F7
:102E8000140CEA1CD2B2C0F3072106AE334403F897
:102E9000141C2B1DDBB2C0F30741324402F8141C92
:102EA0000535EDB2000E334403F8140C47E06E1CF8
:102EB000F6B2404B1A44927806AB2B4403F8142C1C
:102EC0003F4B1B689847AB1CDBB206AA164406F8BA
:102ED000140CEA1CD2B2C0F3072106AE334403F847
:102EE000141C2B1DDBB2C0F30741324402F8141C42
:102EF0000535EDB2000E334403F8140C1FE06E1CD0
:102F0000F6B22C4B1A44927806AB2B4403F8142CDF
:102F10002C4B1B689847AB1CDBB206AA164406F87C
:102F2000140C0335EDB2C0F30720134403F8140C5E
:102F300005E0204B9B8EC3F30B03012B34D90134E6
:102F4000E4B222461B4B9B8EC3F30B039C421DDC59
:102F5000184B9B8EC3F30B03012BEAD8154B9B8EAA
:102F6000C3F30B03FF2BE4D9124B13449B78013BB3
:102F7000032B17D801A151F823F000BF2B2E000816
:102F80005F2E0008AF2E0008FF2E0008002169B94F
:102F900006A8622300F8143D691EC9B2FFF788FD38
:102FA00006B070BD3121F2E71321F0E72220FFF7D0
:102FB000E7FCF5E7304000207C4000207440002012
:102FC0008040002078400020F0B583B0354B0022CF
:102FD0001A60354B1B78012B13D0838EC3F30B0380
:102FE000022B13D9027902F00F041109042C02D12B
:102FF00009B1C2787AB131213420FFF7C1FC03B0A6
:10300000F0BD22213420FFF7BBFCF8E71321342068
:10301000FFF7B6FCF3E726460D460C440334A34203
:1030200010D18A4213D2F31C134403449B7801321B
:10303000AC1AE40003FA04F41A4F3B6823433B60E4
:10304000D2B2EEE713213420FFF79AFCD7E7437999
:10305000082B03D1C388B3F5805F04D0312134201D
:10306000FFF78EFCCBE7037A002BF7D10D4B1B68E3
:10307000002BF3D001230C4A13700C4A1370002369
:103080000B4A13600B4A13800B4A13800B4B1B68CF
:10309000ADF804301B0C8DF80630032101A8FFF7B2
:1030A00007FDACE784400020B90100202300002088
:1030B000BC010020BA010020C00100207872000885
:1030C00070B582B01B4B1C681B4B1B78012B05D1C4
:1030D0001A4B1A681A4B1B689A4205D024213720D4
:1030E000FFF74EFC02B070BD838EC3F30B03012BC0
:1030F00004D013213720FFF743FCF3E70E4B0022E7
:103100001A7002AD772305F8043D0E4B1A88D6B22B
:10311000120A4FF6FE71A020FEF79AFA32464FF6D9
:10312000FD71A020FEF794FA01212846FFF7C0FCAC
:10313000A047D7E704000008B9010020BC01002027
:1031400084400020BA01002010B582B0838EC3F302
:103150000B03022B06D1C37853B112213E20FFF797
:103160000FFC03E013213E20FFF70AFC02B010BD64
:103170007E238DF8043000248DF80540022101A83B
:10318000FFF796FC014B1C70F0E700BFB801002070
:10319000F0B583B0504B1B78012B1CD104464F4B2C
:1031A00019684F4B186881421BD0A38EC3F30B03E1
:1031B00003F6FD72C2F30B022F2A17D8E578494AAD
:1031C0001278954217D0013A95427BD07321362070
:1031D000FFF7D6FB03E024213620FFF7D1FB03B035
:1031E000F0BD24213620FFF7CBFBF8E71321362072
:1031F000FFF7C6FBF3E7091A023B994205D323798F
:103200003A2B07D1032600271BE071213620FFF758
:10321000B7FBE4E771213620FFF7B2FBDFE71201CD
:10322000D2B203F00F0343EA02052F4B19884A1C60
:103230001A802A46A020FEF70BFA3D44AFB20236B0
:10324000F6B23346A28EC2F30B02911E8E420DDA05
:10325000A21992783A2A04D0013323449B783A2B5E
:10326000DDD171213620FFF78BFBB8E77B4221448B
:1032700089780901CDB2511E214491F9021001F063
:103280000F012943DBB28B4204D071213620FFF7B6
:1032900077FBA4E712490B681344023B0B60114A09
:1032A000137801331370114A138801331380762386
:1032B0008DF80430E3788DF80530022101A8FFF77E
:1032C000F7FB8CE776238DF804308DF8055002214A
:1032D00001A8FFF7EDFB82E7B90100208440002040
:1032E000BC01002023000020C0010020BA01002002
:1032F00070B586B00025294601245DE03E4B9B8ECB
:10330000C3F30B03FF2B51D93B4B13449B78DBB228
:10331000052B03D0062B25D0312548E04E1CF6B2F4
:10332000354B1A44927806A8014401F8142C621C0B
:10333000D2B21A449278A11CC9B21944887842EAE0
:103340000022E11CC9B21944887842EA00420434E0
:10335000E4B223449878294B1B6842EA00609847FE
:10336000314624E04E1CF6B2234B1A44927806A84C
:10337000014401F8142C621CD2B21A449278A11CA8
:10338000C9B21944887842EA0022E11CC9B2194442
:10339000887842EA00420434E4B223449878184B17
:1033A0001B6842EA00609847314600E0132595B952
:1033B0000134E4B20131C9B222460F4B9B8EC3F3F4
:1033C0000B039C4207DA0C4B9B8EC3F30B03012BC0
:1033D00094D91325EBE74DB906A86E2300F8143DE8
:1033E0000139C9B2FFF764FB06B070BD29462E2033
:1033F000FFF7C6FAF8E700BF304000208C400020FD
:103400008840002038B502211920FDF785FD0221F2
:103410001B20FDF781FD00211920FDF7EBFD0021A8
:103420001B20FDF7E7FD00211920FDF7C1FC00215D
:103430001B20FDF7BDFC00211820FDF76DFD0021CC
:103440001A20FDF769FD04211820FDF7D3FD0421A2
:103450001A20FDF7CFFD08210220FEF7A1FB002373
:1034600017E00D4D05EBC3021021117100245471BA
:103470000A4803EB43025100421845F83320947088
:10348000435219211171E7215171FF21D17001338C
:10349000DBB2092BE5D938BD00020020C4010020B1
:1034A000F8B50E468C4B00221A7001281ED001215F
:1034B0001B20FDF77DFC0A210220FEF793FB002173
:1034C0001B20FDF775FC4FF6FF7201210220FEF76D
:1034D00099FC00241A20FDF743FC002840F08C8062
:1034E000FF2C00F089800134E4B2F3E701211920B8
:1034F000FDF75EFC0A210220FEF774FB0021192073
:10350000FDF756FC4FF6FF7201210220FEF77AFC10
:10351000002401E00134E4B21820FDF721FC08B9D1
:10352000FF2CF7D1FF2C2AD100250027FF2C49D0F2
:103530006A4C00212046FDF72FFE002104F108000F
:10354000FDF72AFE40F2E5639D4240D8012104F1D7
:103550001000FDF721FEA5F2E6639BB241F22502C1
:1035600093423BD801215E48FDF716FE43F69D13BA
:103570009D423AD901215B48FDF70EFE6DE0012125
:103580000220FEF7D3FE1820FDF7EAFB0128FAD04F
:1035900002210846FEF7CAFE0220FEF713FC05468C
:1035A00003F0B4F802F022FD49A3D3E9002302F0AE
:1035B0009FFE02F0A5FF0746002202210846FEF703
:1035C00021FCB3E701214548FDF7E6FD45E0002178
:1035D0004548FDF7E1FD01233370BCE70021404879
:1035E000FDF7DAFD02233370C0E700213D48FDF707
:1035F000D3FD0323337030E0FF2C30D100250027AA
:10360000FF2C4FD0354C002104F12800FDF7C4FDFC
:10361000002104F13000FDF7BFFD40F2E5639D425B
:1036200045D8012104F13800FDF7B6FD01233370C0
:10363000A5F2E6639BB241F2250293423CD80121F8
:103640002A48FDF7A9FD0223337041F20B739D4216
:1036500037D800212648FDF79FFD3846F8BD0121E7
:103660000220FEF763FE1A20FDF77AFB0128FAD04C
:1036700002210846FEF75AFE0220FEF7A3FB05468C
:1036800003F044F802F0B2FC11A3D3E9002302F0E6
:103690002FFE02F035FF0746002202210846FEF702
:1036A000B1FBADE701211348FDF776FDD5E7002119
:1036B0001148FDF771FDBBE700210C48FDF76CFDDB
:1036C000C3E701210A48FDF767FD03233370C4E710
:1036D000295C8FC2F5684D40C20100200002002025
:1036E00018020020200200201002002040020020CA
:1036F00048020020280200203802002000000000BC
:1037000038B53D4B1B78002B4BD0FDF77FF80446B6
:1037100000284CD000213948FDF73EFD41F28835A4
:1037200005FB04F0C0F30F3000EB800080B202F024
:103730004BFC2DA3D3E9002302F0B0FC2CA3D3E96A
:10374000002302F0F5FA02F0BBFE84B2AC4234D89A
:1037500040F6E3439C423BD9294D00212846FDF722
:103760001BFD002105F10800FDF716FD23E0244DA7
:1037700005EBC3021021117100245471214803EBA1
:1037800043025100421845F83320947003F10C04B1
:10379000445205211171FB215171FF21D170013378
:1037A000DBB2022BE3D9144B01221A70ADE70121E1
:1037B0001248FDF7F1FC204638BD114D0121284685
:1037C000FDF7EAFC002105F10800FDF7E5FCF2E752
:1037D0000B4D00212846FDF7DFFC012105F1080013
:1037E000FDF7DAFCE7E700BF3B014D840D4FE53FF5
:1037F000EC51B81E858B5540500200206402002019
:10380000540200206C020020074B23F00703074AF4
:10381000136000205060064A43F6F8315160106092
:1038200059601A60704700BF880200208C3E00205B
:10383000803E0020F8B5044601F0C8FC2C4B1B6804
:1038400023B9FFF7E1FF2A4B01221A60631E13F12F
:103850000A0F42D8083424F007020832A2423ED9A7
:1038600002F0070343B14FF0500383F31188BFF315
:103870006F8FBFF34F8FFEE7002A32D01D4B1868C1
:10388000824230D81C490B6801E0194623465C6827
:10389000A24202D91C68002CF7D1184CA34224D0B4
:1038A0000C6808341D680D605D68AD1A102D0CD9C8
:1038B00099184D605A604E680F4A00E02A46156814
:1038C0006F68B742FAD30D6011605B68C01A094B8C
:1038D000186001F015FD2046F8BD0024F9E700242A
:1038E000F7E70024F5E70024F3E70024F1E700BF41
:1038F000883E0020240000208C3E0020803E0020D6
:10390000D0B138B50446A0F1080501F05FFC54F8C9
:10391000040C0A4A00E01A46136859688142FAD337
:1039200044F8083C156054F8041C054A13680B441D
:10393000136001F0E5FC38BD704700BF8C3E0020ED
:103940002400002000F1080343604FF0FF32826042
:10395000C360036100230360704700230361704765
:1039600043684B609A688A609A6851609960086100
:10397000036801330360704730B40D68B5F1FF3F51
:1039800002D000F1080202E0026904E01A4653681E
:103990001C68AC42FAD953684B6099608A605160E8
:1039A000086103680133036030BC704703694268F3
:1039B000816891608268416851605A68824206D08D
:1039C000002202611A68013A1A601868704782681A
:1039D0005A60F5E72DE9F04186B00024ADF81640B5
:1039E000FEF72AF802210846FEF730F803210220EC
:1039F000FEF72CF809210220FEF728F821460120C5
:103A0000FEF724F801210846FEF720F802210120E4
:103A1000FEF71CF80E210220FEF718F815210120F0
:103A2000FEF714F819210120FEF710F80120FEF727
:103A30001BFFFFF7E7FCFCF753FFFDF747F9FCF727
:103A4000D7FFFCF787FE7448FDF710FC4FF4FA51DE
:103A50002046FEF7A5F821460120FDF75DFA042176
:103A60000120FDF7C7FA01211620FDF755FA0321C1
:103A70001620FDF7BFFA01211720FDF74DFA0321AB
:103A80001720FDF7B7FAFDF773FE21462046FDF734
:103A900043FA21462046FDF7ADFA01211520FDF736
:103AA0003BFA21461520FDF7A5FA01210220FDF77A
:103AB00033FA21460220FDF79DFA01210320FDF78C
:103AC0002BFA21460320FDF795FA01210420FDF78A
:103AD00023FA21460420FDF78DFA01210520FDF788
:103AE0001BFA21460520FDF785FA01210620FDF786
:103AF00013FA21460620FDF77DFA01222146A02077
:103B0000FDF702FE55238DF810308DF811408DF829
:103B1000124004A8FDF712F84048FCF777FF06A909
:103B200001F80C4D0120FCF72FFE03222146012055
:103B300000F016FD3A4B186003222146012000F0E8
:103B40000FFD384B186003222146012000F008FDCC
:103B5000354B186003222146012000F001FD334B54
:103B6000186003222146012000F0FAFC304B186057
:103B7000304B0193052600962346FA222E492F4802
:103B800001F03CFA0194042500952346FA222C49C1
:103B90002C4801F033FADFF8DC802B4F01940095BC
:103BA0002346FA224146384601F028FA019400954E
:103BB0002346FA224146384601F020FA0194009546
:103BC0002346FA222149224801F018FA019400956F
:103BD0002346FA221F49204801F010FA019400956B
:103BE0002346FA221D491E4801F008FA0194009567
:103BF0002346FA221B491C4801F000FA0194009662
:103C00002346FA2219491A4801F0F8F901F098FA06
:103C100006B0BDE8F08100BF05400008E5130008CC
:103C200090400020A8400020A0400020A440002098
:103C3000AC400020B04000207C7200089D3D000890
:103C4000887200082D3E0008C93E00089C720008DA
:103C5000693F0008A0720008993F0008A47200089C
:103C6000AD3F0008A8720008E53F0008AC720008EC
:103C7000314000089072000800B583B032E00121A5
:103C80001520FDF795F800210320FDF791F800219C
:103C90000220FDF78DF857E001210320FDF788F899
:103CA00000211520FDF784F800210220FDF780F89F
:103CB0004AE001210420FDF77BF800210520FDF7F3
:103CC00077F800210620FDF773F80BE001210620AC
:103CD000FDF76EF800210420FDF76AF800210520A9
:103CE000FDF766F800238DF806308DF807300DF1EA
:103CF00006010120FFF7D4FB244C20600DF10701E1
:103D00000220FFF7CDFB224B1860224B186802F00F
:103D1000FDFC216802F0A0FD0028B0D11E4B186800
:103D200002F0F4FC194B196802F096FD0028B3D09C
:103D300001210220FDF73CF800210320FDF738F8AF
:103D400000211520FDF734F8124B186802F0DEFC54
:103D50000F4B196802F080FD0028AAD10E4B18689D
:103D600002F0D4FC0A4B196802F076FD0028ADD0B1
:103D700001210520FDF71CF800210420FDF718F8AB
:103D800000210620FDF714F8ACE700BFB440002086
:103D90009C400020280000202C00002000B583B0AB
:103DA00009E01D4B0193042300930023FA221B49D1
:103DB0001B4801F023F94FF0FF311A4B186800F04F
:103DC0004BFE0128F7D1184A13780133DBB2137088
:103DD000012BE6D0012BEED90F4B186801F040F90A
:103DE00000210620FCF7E4FF00210420FCF7E0FF9F
:103DF00000210520FCF7DCFF00211520FCF7D8FF8F
:103E000000210220FCF7D4FF00210320FCF7D0FFA3
:103E1000054B00221A70CEE798400020B4720008CB
:103E2000793C000890400020943E002000B583B00B
:103E300001F0D4F9019012E000231A4619461F48F8
:103E4000006800F0C9FB17E000231A4619461C4819
:103E5000006800F0C1FB012101A801F0CBFA0120AC
:103E6000FEF752FD174B18701A78D2B21B78DBB2EE
:103E7000772B18BF572ADFD0124A1378DBB211789C
:103E8000C9B2462918BF522B0CBF0123002310785A
:103E9000C0B21178C9B21278D2B2532A14BF00222C
:103EA0000122422808BF43F001034C2908BF43F018
:103EB0000103002BC8D1002ACDD0C5E790400020D7
:103EC000A84000209440002008B502E00120FCF743
:103ED00042FF4FF0FF31224B186800F0BDFD012872
:103EE000F7D16420FCF7F6FE1E4B1B78423B112BEA
:103EF000EFD801A252F823F0413F0008D33E00085A
:103F0000D33E0008D33E0008CD3E0008D33E000853
:103F1000D33E0008D33E0008D33E0008D33E00083D
:103F2000513F0008D33E0008D33E0008D33E0008AE
:103F3000D33E0008D33E0008493F0008593F00081F
:103F40000220FCF708FFC4E70320FCF704FFC0E7EA
:103F50000420FCF700FFBCE70520FCF7FCFEB8E7F7
:103F6000A84000209440002000B583B001F036F94D
:103F7000019003E0022101A801F03CFAFFF7C0FB29
:103F80000028F7D000231A4619460248006800F0BE
:103F900023FBEFE7A040002008B54FF0FF31024BB4
:103FA000186800F059FDF8E7A040002000B583B084
:103FB00001F014F9019003E0022101A801F01AFABE
:103FC000FDF76AFD054B1B88002BF5D000231A4630
:103FD00019460348006800F0FFFAEDE7820100206F
:103FE000A440002008B54FF0FF31054B186800F0E1
:103FF00033FD0128F7D10B20FCF734FFF3E700BFB6
:10400000A440002084B008B50DF1080C8CE80F0026
:104010000421054B186800F00FFC044B02AA1A603B
:10402000BDE8084004B07047AC400020B840002014
:1040300080B58AB004220021134B186800F0DAFD25
:104040000128F7D1114B1C68D4F80090D4F80480F3
:10405000D4F808E0D4F80CC004F110056F463034F1
:104060003E4628686968AA68EB680FC6103537466F
:10407000A542F5D12868696803C74846414672469B
:104080006346FEF7A5FCD5E7AC400020B840002011
:1040900082B0002301930D4B1B68B3F1FF3F08D0A2
:1040A0004FF0500383F31188BFF36F8FBFF34F8F2F
:1040B000FEE74FF0500383F31188BFF36F8FBFF318
:1040C0004F8F019B002BFCD002B0704730000020C6
:1040D00006480068006880F3088862B661B6BFF3DE
:1040E0004F8FBFF36F8F00DF00BF000008ED00E0CF
:1040F0004FF0807340F8043C21F0010140F8081CA7
:10410000034B40F80C3C40F8202C4038704700BF6F
:1041100091400008000000000000000000000000C6
:10412000074B19680868B0E8F00F80F30988BFF3FF
:104130006F8F4FF0000080F311884EF00D0E704726
:104140009C3E00204FF0500383F31188BFF36F8F24
:10415000BFF34F8F0A4A136801331360012B00D05D
:104160007047084B1B6813F0FF0FF9D04FF0500356
:1041700083F31188BFF36F8FBFF34F8FFEE700BF4C
:104180003000002004ED00E0094B1B6843B94FF0FC
:10419000500383F31188BFF36F8FBFF34F8FFEE798
:1041A000013B034A13600BB983F31188704700BFCA
:1041B00030000020000000000000000000000000AF
:1041C000EFF30980BFF36F8F0D4B1A6820E9F00FF2
:1041D00010602DE908404FF0500080F3118801F085
:1041E00061F94FF0000080F31188BDE808401968BC
:1041F0000868B0E8F00F80F30988BFF36F8F70474D
:104200009C3E002008B54FF0500383F31188BFF3A4
:104210006F8FBFF34F8F00F0E7FF18B1034B4FF0E4
:1042200080521A60002383F3118808BD04ED00E07A
:10423000054B00221A6005490A60054A05491160CC
:1042400007221A60704700BF10E000E018E000E0AD
:1042500014E000E04870110010B582B0274B1A78C6
:10426000D2B20192FF221A701B78DBB28DF80330B4
:104270009DF8033003F05003214A1370214B0722AD
:104280001A6009E01F4A1368013B13609DF8033070
:104290005B00DBB28DF803309DF8033013F0800F24
:1042A000F0D1184B1B68032B08D04FF0500383F359
:1042B0001188BFF36F8FBFF34F8FFEE71B0203F42C
:1042C000E063104A1360019BDBB20C4A13700E4B83
:1042D0001A6842F470021A601A6842F070421A605A
:1042E000FFF7A6FF0024094B1C60FFF7F1FE01F069
:1042F000D9F8FFF7CDFE204602B010BD00E400E083
:10430000953E0020983E002020ED00E03000002087
:10431000EFF305830F2B0FD9104A9B5CDBB2104AD9
:1043200012789A4208D94FF0500383F31188BFF3F3
:104330006F8FBFF34F8FFEE70A4B1B6803F4E063F8
:10434000094A1268934208D94FF0500383F3118849
:10435000BFF36F8FBFF34F8FFEE77047F0E300E0CE
:10436000953E00200CED00E0983E0020436A23B10A
:10437000036B1868C0F1050070470020704710B546
:104380000446FFF7DFFEA26BE36B9A4204D00024E1
:10439000FFF7FAFE204610BD0124F9E710B50446E8
:1043A000FFF7D0FEA36B23B10024FFF7EDFE2046FC
:1043B00010BD0124F9E770B504461646856B026C02
:1043C0005AB903681BB100200135A56370BD806830
:1043D00001F0E8F90023A360F6E76EB9406802F047
:1043E00069FA226C636813446360A268934219D32C
:1043F000236863600020E7E7C06802F05BFA226C84
:104400005242E3681344E36021688B4202D2A368FE
:104410001A44E260022E01D00020D5E725B1013D0B
:104420000020D1E70020CFE70020CDE7026C72B179
:1044300010B5C3681344C3608468A34201D3036802
:10444000C3600C46C168204602F034FA10BD7047C4
:1044500038B50546FFF776FE95F8454064B203E0AF
:1044600001F034F9013C64B2002C08DD6B6A33B111
:1044700005F1240001F096F80028F3D0F0E7FF23BF
:1044800085F84530FFF780FEFFF75CFE95F8444065
:1044900064B203E001F01AF9013C64B2002C08DDBB
:1044A0002B6933B105F1100001F07CF80028F3D03E
:1044B000F0E7FF2385F84430FFF766FE38BD0000C3
:1044C00038B540B94FF0500383F31188BFF36F8FB5
:1044D000BFF34F8FFEE704460D46FFF733FE21681A
:1044E000E26B236C03FB0210A0600020A0636160FC
:1044F000013A02FB0313E360FF2384F8443084F89D
:104500004530A5B923691BB9FFF73EFE012038BD30
:1045100004F1100001F046F80028F5D0084B4FF0E8
:1045200080521A60BFF34F8FBFF36F8FECE704F137
:104530001000FFF707FA04F12400FFF703FAE3E79E
:1045400004ED00E010B5029B0C4639B91B60D8633E
:104550001C6401211846FFF7B3FF10BD1A60F6E78F
:1045600040B94FF0500383F31188BFF36F8FBFF34F
:104570004F8FFEE7F0B583B0054601FB00F061B157
:10458000B0FBF1F4AC4208D04FF0500383F3118834
:10459000BFF36F8FBFF34F8FFEE710F1490F08D9BC
:1045A0004FF0500383F31188BFF36F8FBFF34F8F2A
:1045B000FEE717460C464830FFF73CF9064638B18F
:1045C00000903B4600F1480221462846FFF7BAFF1B
:1045D000304603B0F0BD0000F0B585B0019260B187
:1045E000044699B9026C8AB14FF0500383F31188E5
:1045F000BFF36F8FBFF34F8FFEE74FF0500383F38E
:104600001188BFF36F8FBFF34F8FFEE7022B0BD1E3
:10461000E26B012A08D04FF0500383F31188BFF3F7
:104620006F8FBFF34F8FFEE71E460F4601F054F821
:1046300050B9019B53B14FF0500383F31188BFF37E
:104640006F8FBFF34F8FFEE700253AE0002538E07B
:10465000324639462046FFF7AEFE636A4BB9A8B131
:104660003B4B4FF080521A60BFF34F8FBFF36F8FF9
:104670000CE004F1240000F095FF38B1344B4FF00A
:1046800080521A60BFF34F8FBFF36F8FFFF77CFD2F
:10469000012005B0F0BDFFF777FD0020F9E702A883
:1046A00000F0C6FF012519E0002384F8443021E022
:1046B000002384F8453023E02046FFF7C9FE00F0D0
:1046C0001FFEFFF73FFDA26BE36B9A42C0D3022EA1
:1046D000BED0019B002BDED0002DE0D0FFF754FDB3
:1046E00000F074FDFFF72EFD94F844305BB2B3F197
:1046F000FF3FD9D094F845305BB2B3F1FF3FD7D03C
:10470000FFF742FD01A902A800F09EFFC8B92046AC
:10471000FFF735FE0028CFD0019904F1100000F01A
:104720000DFF2046FFF794FE00F0EAFD0028C8D1F7
:10473000074B4FF080521A60BFF34F8FBFF36F8F5C
:10474000BFE72046FFF784FE00F0DAFD0020A0E777
:1047500004ED00E02DE9F84360B1044699B9006C1E
:1047600088B14FF0500383F31188BFF36F8FBFF30D
:104770004F8FFEE74FF0500383F31188BFF36F8F25
:10478000BFF34F8FFEE7022B0BD1E06B012808D05F
:104790004FF0500383F31188BFF36F8FBFF34F8F38
:1047A000FEE71F4690468946FFF7B2FDEFF31186FC
:1047B0004FF0500383F31188BFF36F8FBFF34F8F18
:1047C000A26BE36B9A4206D3022F04D0002086F33B
:1047D0001188BDE8F88394F845506DB2A36B3A4652
:1047E00049462046FFF7E7FDB5F1FF3F07D07F2D93
:1047F00013D06B1C5BB284F845300120E7E7636A95
:10480000A3B104F1240000F0CDFE88B1B8F1000F8F
:1048100010D00120C8F80000D9E74FF0500383F30F
:104820001188BFF36F8FBFF34F8FFEE70120CEE7F4
:104830000120CCE70120CAE760B170B50446036CE3
:104840008BB14FF0500383F31188BFF36F8FBFF329
:104850004F8FFEE74FF0500383F31188BFF36F8F44
:10486000BFF34F8FFEE703682BB30E46FFF750FDF3
:10487000EFF311854FF0500383F31188BFF36F8F6F
:10488000BFF34F8FA26BE36B934231D994F845305D
:104890005BB20132A263B3F1FF3F18D1636A4BB33D
:1048A00004F1240000F07EFE30B33EB301203060FE
:1048B00085F3118870BD8368002BD6D04FF050036C
:1048C00083F31188BFF36F8FBFF34F8FFEE77F2B0A
:1048D00008D14FF0500383F31188BFF36F8FBFF3FC
:1048E0004F8FFEE701335BB284F845300120DFE7EC
:1048F0000020DDE70120DBE70120D9E70120D7E731
:10490000F0B585B0019260B1044699B9036C8BB1E2
:104910004FF0500383F31188BFF36F8FBFF34F8FB6
:10492000FEE74FF0500383F31188BFF36F8FBFF39F
:104930004F8FFEE70F4600F0CFFE50B9019B53B1F9
:104940004FF0500383F31188BFF36F8FBFF34F8F86
:10495000FEE700263EE000263CE039462046FFF711
:1049600065FD013DA563236923B9FFF70DFC012017
:1049700005B0F0BD04F1100000F014FE0028F4D0E2
:10498000344B4FF080521A60BFF34F8FBFF36F8FDD
:10499000EBE7FFF7F9FB0020EAE702A800F048FE8A
:1049A000012621E0002384F8443029E0002384F824
:1049B00045302BE02046FFF74BFD00F0A1FC09E05D
:1049C0002046FFF745FD00F09BFC2046FFF7E6FC84
:1049D00000283DD1FFF7B6FBA56B002DBDD1019B93
:1049E000002BD6D0002ED8D0FFF7CEFB00F0EEFB88
:1049F000FFF7A8FB94F844305BB2B3F1FF3FD1D08E
:104A000094F845305BB2B3F1FF3FCFD0FFF7BCFB6A
:104A100001A902A800F018FE0028D1D12046FFF716
:104A2000BDFC0028C6D0019904F1240000F086FDE9
:104A30002046FFF70DFD00F063FC0028CAD1054BAE
:104A40004FF080521A60BFF34F8FBFF36F8FC1E7F3
:104A500000208DE704ED00E070B584B0019140B90D
:104A60004FF0500383F31188BFF36F8FBFF34F8F65
:104A7000FEE70446036C43B14FF0500383F3118803
:104A8000BFF36F8FBFF34F8FFEE700F025FE50B9E5
:104A9000019B5BB14FF0500383F31188BFF36F8F1D
:104AA000BFF34F8FFEE700252E4651E000252E462E
:104AB0004EE0013BA363236813B900F01FFFA06021
:104AC000236963B104F1100000F06CFD38B1484B6C
:104AD0004FF080521A60BFF34F8FBFF36F8FFFF715
:104AE00053FB0125284604B070BD45B14FF050037B
:104AF00083F31188BFF36F8FBFF34F8FFEE7FFF78C
:104B000043FBEFE702A800F093FD01262AE0002313
:104B100084F8443032E0002384F8453034E0FFF775
:104B200011FBA06800F0E8FD0546FFF72DFB3BE018
:104B30002046FFF78DFC00F0E3FB09E02046FFF77D
:104B400087FC00F0DDFB2046FFF728FC002840D161
:104B5000FFF7F8FAA36B002BABD1019B002BC4D05D
:104B6000002ECFD0FFF710FB00F030FBFFF7EAFA82
:104B700094F844305BB2B3F1FF3FC8D094F84530AD
:104B80005BB2B3F1FF3FC6D0FFF7FEFA01A902A85E
:104B900000F05AFD0028D1D12046FFF7FFFB002886
:104BA000C6D02368002BBAD0019904F1240000F08C
:104BB000C5FC2046FFF74CFC00F0A2FB0028C7D143
:104BC0000B4B4FF080521A60BFF34F8FBFF36F8FC4
:104BD000BEE7002D86D0FFF7B5FA2046FFF7C6FBEB
:104BE0000146A06800F030FEFFF7CEFA002579E715
:104BF00004ED00E02DE9F84360B1044699B9036C77
:104C00008BB14FF0500383F31188BFF36F8FBFF365
:104C10004F8FFEE74FF0500383F31188BFF36F8F80
:104C2000BFF34F8FFEE717468946FFF771FBEFF39F
:104C300011864FF0500383F31188BFF36F8FBFF3DA
:104C40004F8FD4F83880B8F1000F28D094F8445032
:104C50006DB249462046FFF7E9FB08F1FF33A36335
:104C6000B5F1FF3F0AD07F2D13D14FF0500383F3EE
:104C70001188BFF36F8FBFF34F8FFEE723699BB19E
:104C800004F1100000F08EFC80B18FB1012038607B
:104C900006E06B1C5BB284F84430012000E0002089
:104CA00086F31188BDE8F8830120F9E70120F7E7D2
:104CB0000120F5E770B504460D461646FFF742FAA7
:104CC00094F844305BB2B3F1FF3F0DD094F8453017
:104CD0005BB2B3F1FF3F0BD0FFF756FAA36B5BB1AA
:104CE0002046FFF7B5FB70BD002384F84430EDE7A4
:104CF000002384F84530EFE73246294604F12400CA
:104D000000F034FCECE70000074B1B681B6833B174
:104D1000054B1B68DB681A68044B1A607047034B2D
:104D20004FF0FF321A607047A03E00204C3F002039
:104D300010B50446006BFEF7E3FD2046FEF7E0FDEC
:104D400010BD2DE9F04780469946089D099F0A9CB1
:104D5000266B02F18042013A06EB820626F0070636
:104D6000002939D00A460023092B07D8D056E1186C
:104D700081F83400D15609B10133F5E7002384F8F6
:104D80003D30042D00D90425E56225644FF0000A6A
:104D9000C4F844A0201DFEF7E0FD04F11800FEF762
:104DA000DCFD2461C5F10505A5616462042251465C
:104DB00004F1480001F089FD0122514604F14C0044
:104DC00001F083FD4A4641463046FFF791F92060E5
:104DD00007B13C60BDE8F087002384F83430D0E7A9
:104DE00038B5002407E004EB840293000E48184411
:104DF000FEF7A8FD0134042CF5D90C4D2846FEF72A
:104E0000A1FD0B4C2046FEF79DFD0A48FEF79AFDDA
:104E10000948FEF797FD0948FEF794FD084B1D6011
:104E2000084B1C6038BD00BFA83E0020203F00207A
:104E3000343F0020583F0020843F0020703F002076
:104E4000A03E0020A43E002010B50446FFF77AF9EA
:104E5000204A1368013313601F4B1B685BB11F4B63
:104E60001B686BB91C4B1B68DA6AE36A9A4207D865
:104E7000194B1C6004E0184B1C601368012B26D0F2
:104E8000174A136801331360E36A01229A401549F7
:104E9000086802430A6003EB83039A00211D12484D
:104EA0001044FEF75DFDFFF76FF90C4B1B686BB10B
:104EB000094B1B68DA6AE36A9A4207D20B4B4FF040
:104EC00080521A60BFF34F8FBFF36F8F10BDFFF793
:104ED00087FFD5E70C3F00209C3E00206C3F002060
:104EE000183F00201C3F0020A83E002004ED00E0F9
:104EF0000F4B1B68D3B110B5FFF724F90D4BDB68DE
:104F0000DC68201DFEF752FD0B4A1368013B13605D
:104F1000074A1368013B1360FFF736F92046FFF795
:104F200007FF034B1B68002BE6D110BD704700BF85
:104F3000103F0020843F00200C3F002008B5FFF701
:104F4000D7FF064B1B68012BF9D9054B4FF0805258
:104F50001A60BFF34F8FBFF36F8FF0E7A83E0020BA
:104F600004ED00E070B504460E461D4B1D681D4B58
:104F700018680430FEF71AFD50B91A4B1B68DA6A3C
:104F8000012303FA02F218490B6823EA02030B60BB
:104F9000B4F1FF3F13D02C44124B1B685C60A54258
:104FA00016D8124B18680F4B19680431FEF7E4FC51
:104FB0000F4B1B68A34212D90D4B1C600FE0002E53
:104FC000E9D0084B196804310A48FEF7C9FC06E02D
:104FD000094B1868034B19680431FEF7CDFC70BD0E
:104FE000983F00209C3E00201C3F0020A03E002057
:104FF0004C3F0020703F0020A43E00202DE9F043EC
:1050000085B007468846154699469000FEF712FC83
:10501000F8B106465020FEF70DFC0446A8B1066321
:10502000D4B10023039302940D9B01930C9B009336
:105030004B462A4641463846FFF783FE2046FFF797
:1050400003FF012005B0BDE8F0833046FEF758FCB1
:10505000E6E74FF0FF30F5E74FF0FF30F2E70000F2
:1050600038B50446FFF76EF8002C34D0251D2846CD
:10507000FEF79CFC70B9E26A02EB82018B002649C4
:10508000CB583BB9012303FA02F224490B6823EA07
:1050900002030B60A36A1BB104F11800FEF786FC43
:1050A0001F4A1368013313601E4B1B68A34215D0BF
:1050B0001D4A1368013B13602046FFF739FEFFF7D6
:1050C00023FEFFF761F8194B1B681BB1154B1B68DA
:1050D000A3420CD038BD134B1C68C7E729461448BF
:1050E000FEF73EFC134A136801331360E9E7124BE5
:1050F0001B6843B14FF0500383F31188BFF36F8FE8
:10510000BFF34F8FFEE70D4B4FF080521A60BFF395
:105110004F8FBFF36F8FDDE7A83E00201C3F0020BC
:10512000183F00209C3E00200C3F00206C3F0020D8
:10513000843F0020103F0020143F002004ED00E0D9
:1051400000B583B01A4B01930023009346221949FE
:105150001948FFF753FF012809D001280AD0B0F100
:10516000FF3F1CD0154B1B6803B05DF804FB00F03B
:105170002FFCF2E74FF0500383F31188BFF36F8FDA
:10518000BFF34F8F0E4B4FF0FF321A600D4B0122D1
:105190001A600D4B00221A60FFF75EF8E2E74FF04D
:1051A000500383F31188BFF36F8FBFF34F8FFEE778
:1051B000483F0020C47200083D4F00083400002022
:1051C0004C3F00206C3F0020983F0020024A1368AB
:1051D00001331360704700BF143F0020014B186873
:1051E000704700BF983F0020F8B53A4B1B68002B72
:1051F00069D1394B1D6801351D60C5B9374B1B6836
:105200001B6843B14FF0500383F31188BFF36F8FD6
:10521000BFF34F8FFEE7314A1168314B18681060B9
:105220001960304A136801331360FFF76DFD2E4B90
:105230001B68AB423DD900242C4B1B68DB6A03EB97
:1052400083039A002A4B9B58012B00D90124294B38
:105250001B68002B3CD001243AE001241F4B1B6843
:105260001B6843B31D4B1B68DB68DE6873689D4297
:1052700026D3371D3846FEF799FBB36A1BB106F1FA
:105280001800FEF793FBF36A01229A401A49086856
:1052900002430A6003EB83039A0039461448104422
:1052A000FEF75EFBF26A114B1B68DB6A9A42D4D2AE
:1052B000D4E70024D2E70C4B4FF0FF321A60BBE773
:1052C000094A1360B8E70D4A1368013313600024DC
:1052D0002046F8BD143F0020983F0020A03E00204B
:1052E000A43E0020503F00204C3F00209C3E002068
:1052F000A83E00209C3F00201C3F0020543F00207F
:1053000038B5334B1B6843B94FF0500383F3118812
:10531000BFF36F8FBFF34F8FFEE7FEF713FF2C4BEA
:105320001A68013A1A601B68002B4DD1294B1B6883
:1053300023B90024FEF728FF204638BD0024264B61
:105340001B681BB3244BDB68DC6804F11800FEF714
:105350002DFB251D2846FEF729FBE36A01229A4012
:105360001E49086802430A6003EB83039A0029463A
:105370001B481044FEF7F4FAE26A1A4B1B68DB6A1A
:105380009A42DCD3184B01221A60D8E70CB1FFF720
:10539000BBFC164B1C6854B1FFF726FF10B1124B33
:1053A00001221A60013CF7D1104B00221A600E4B0B
:1053B0001B685BB10E4B4FF080521A60BFF34F8FEA
:1053C000BFF36F8F0124B5E70024B3E70024B1E7F2
:1053D000143F00200C3F0020583F00201C3F0020BD
:1053E000A83E00209C3E00209C3F0020543F00200F
:1053F00004ED00E038B550B1054689B94FF05003CF
:1054000083F31188BFF36F8FBFF34F8FFEE74FF029
:10541000500383F31188BFF36F8FBFF34F8FFEE705
:105420001D4B1B6843B14FF0500383F31188BFF34A
:105430006F8FBFF34F8FFEE70C46FFF7C7FE174B8A
:1054400018682A68144482421CD9A2420ED82C60E3
:105450000024FFF755FF38B9114B4FF080521A6006
:10546000BFF34F8FBFF36F8F204638BDA04202D3EA
:105470002C600024EDE72C600021201AFFF772FD5C
:105480000124E6E7A24201D8A04201D22C60F3E752
:105490002C600024DDE700BF143F0020983F00206F
:1054A00004ED00E0204B1B681BB1204B01221A6069
:1054B00070471E4B00221A601D4B1B68B3FA83F322
:1054C000DBB2C3F11F0303EB83018A0019498A5839
:1054D00042B94FF0500383F31188BFF36F8FBFF3CE
:1054E0004F8FFEE710B413489A00D418A10001446E
:1054F0004C6864684C601A44910008310844844246
:105500000AD003EB83039A000A4B13445B68DA6802
:10551000094B1A6010BC704761680648142202FBF0
:1055200003025160EDE700BF143F00209C3F0020C4
:105530001C3F0020A83E00209C3E002040B94FF0B8
:10554000500383F31188BFF36F8FBFF34F8FFEE7D4
:1055500010B50C46044B19681831FEF70DFA0121FD
:105560002046FFF7FFFC10BD9C3E002038B540B937
:105570004FF0500383F31188BFF36F8FBFF34F8F4A
:10558000FEE70C461546064A11681831FEF7E8F9A1
:105590000DB14FF0FF3429462046FFF7E3FC38BD3C
:1055A0009C3E002038B5C368DC6844B94FF0500316
:1055B00083F31188BFF36F8FBFF34F8FFEE704F1C2
:1055C00018052846FEF7F2F9134B1B68E3B9251DB1
:1055D0002846FEF7EBF9E36A01229A400F49086872
:1055E00002430A6003EB83039A0029460C481044E7
:1055F000FEF7B6F9E26A0B4B1B68DB6A9A4208D9E0
:105600000120094B186038BD29460848FEF7A8F963
:10561000F0E70020F7E700BF143F00201C3F002008
:10562000A83E00209C3E00209C3F0020583F0020C8
:10563000034B1B680360034B1B684360704700BF4C
:10564000503F0020983F0020F8B550B1054689B979
:105650004FF0500383F31188BFF36F8FBFF34F8F69
:10566000FEE74FF0500383F31188BFF36F8FBFF352
:105670004F8FFEE70C46FEF765FD124B1968686810
:105680000A1A2368B3F1FF3F1AD02F680E4E36680E
:10569000B74201D0884205D993420AD8002323603B
:1056A000012402E0002323600124FEF76DFD204663
:1056B000F8BD9B1A23602846FFF7BAFF0024F4E7E1
:1056C0000024F2E7983F0020503F0020014B0122C8
:1056D0001A6070479C3F0020054B1B6833B1054B97
:1056E0001B680BB1002070470220704701207047F3
:1056F0006C3F0020143F002000284BD038B50446F2
:10570000C26A25490968C96A8A4239D28169002971
:1057100005DB21490968C96AC1F105018161606938
:1057200002EB820291001D4A0A44904205D01A4AB7
:105730001268D26AE262012038BD251D2846FEF7B4
:1057400035F940B9E26A012303FA02F214490B6801
:1057500023EA02030B60104B1B68DB6AE36201243F
:1057600004FA03F20E49086802430A6003EB83035C
:105770009A00294609481044FEF7F2F82046DBE774
:10578000026C054B1B68DB6A9A4201D20120D3E709
:105790000020D1E7002070479C3E0020A83E00205A
:1057A0001C3F0020002843D038B50446234A126825
:1057B000824208D04FF0500383F31188BFF36F8FFC
:1057C000BFF34F8FFEE7426C42B94FF0500383F3B3
:1057D0001188BFF36F8FBFF34F8FFEE7013A42642A
:1057E000C06A216C884225D032BB251D2846FEF7B1
:1057F000DDF840B9E26A012303FA02F210490B68AE
:1058000023EA02030B60236CE362C3F10502A26189
:10581000012404FA03F20A49086802430A6029468F
:10582000084A142000FB0320FEF79AF8204638BDF2
:10583000002070470020FAE70020F8E79C3E002097
:105840001C3F0020A83E002000284FD038B503465A
:10585000406C40B94FF0500383F31188BFF36F8F52
:10586000BFF34F8FFEE71A6C8A4200D20A46D96A0C
:10587000914201D0012800D038BD1D4800689842EF
:1058800008D14FF0500383F31188BFF36F8FBFF33C
:105890004F8FFEE7DA629869002802DBC2F1050249
:1058A0009A615A691348142404FB01018A42E3D126
:1058B0001C461D1D2846FEF779F840B9E26A01230F
:1058C00003FA02F20C490B6823EA02030B60E26A56
:1058D000012393400849086803430B602946054BA0
:1058E000142000FB0230FEF73BF8C5E7704700BF0D
:1058F0009C3E0020A83E00201C3F0020054B1B685A
:1059000023B1044B1A68536C01335364014B18687C
:10591000704700BF9C3E0020064B1A6813682BB9E5
:105920000123036023B9D368186870470023F8E7A0
:1059300000207047A03F002008B5416000619142FF
:105940000CD8D21A83699A4201D3012010E0011DBC
:10595000094B1868FEF710F8002009E09A4201D2BE
:10596000994206D2011D054B1868FEF705F8002084
:1059700008BD0120FCE700BFA43F0020A03F00209D
:1059800038B5FEF7DFFB0D4B1B6813B1FEF7FCFBD0
:1059900038BD0B4D2846FDF7D5FF0A4C2046FDF7D4
:1059A000D1FF094B1D60094B1C6000220C21052012
:1059B000FEF7D6FD014B1860E8E700BFD43F00209A
:1059C000A83F0020BC3F0020A03F0020A43F0020B3
:1059D00000B583B0FFF7D4FF0C4B1B6853B10C4BE1
:1059E000019303230093002346220A490A48FFF744
:1059F00005FB40B94FF0500383F31188BFF36F8F5D
:105A0000BFF34F8FFEE703B05DF804FBD43F0020E7
:105A1000D83F0020CC7200080D5D0008C8B130B539
:105A200085B015460446174A106840B31A460191DE
:105A30000295039405291DDCFFF74EFE022811D0C4
:105A400000231A4601A90F480068FEF7C5FD05B0FE
:105A500030BD4FF0500383F31188BFF36F8FBFF356
:105A60004F8FFEE70023089A01A906480068FEF759
:105A7000B3FDECE7002301A9FEF76CFEE7E7002089
:105A8000E5E700BFD43F002070B582B01B4B1B6818
:105A90001A6862B3DB681E68DC68251D2846FDF7BE
:105AA00085FF236A2046984794F8243013F0040FAA
:105AB000ECD0A36933449E4207D263602461294637
:105AC0000E4B1868FDF758FFE0E7002100910B46E8
:105AD00032462046FFF7A2FF0028D7D14FF05003EF
