:020000040800F2
:100000000050002021020008270200082B020008EF
:100010009D020008A1020008E9020008000000009B
:100020000000000000000000000000003103000894
:100030003503000800000000390300083D030008F4
:100040004D0300084D0300084D0300084D03000850
:100050004D0300084D0300084D0300084D03000840
:100060004D0300084D0300084D0300084D03000830
:100070004D0300084D0300084D0300084D03000820
:100080004D0300084D0300084D030008E50A000871
:100090002D0B0008710B00084D0300084D030008EC
:1000A0004D0300084D0300084D0300084D030008F0
:1000B0009D1A0008F11A0008451B00084D030008AE
:1000C0004D0300084D0300084D0300084D030008D0
:1000D0004D030008991B00084D0300084D0300085C
:1000E0004D0300084D0300084D0300080000000008
:1000F0000000000000000000000000000000000000
:1001000000000000000000005FF808F100B583B0B7
:1001100000F0AAF9304B314A1360314A1360314B79
:10012000314A32498B4204D21168196004330432D7
:10013000F7E72A4B1A682E4B9A4200D0FEE7284B6D
:100140001A682C4B9A42F9D1234B2B4A13602B4A45
:1001500013602B4B02E000221A600433294A9342B9
:10016000F9D3254B1B6813B9244B1B6803B1FEE779
:1001700000F086F9694601A800F022F9224C234BD1
:10018000E41AA4100025AC4214DC214C214BE41AE3
:10019000A4100025AC4213DC0099019802F0C6FBC4
:1001A00005461D4C1D4BE41AA410002C0EDC2846FD
:1001B00000F0E2F8154B53F8253098470135E2E797
:1001C000144B53F8253098470135E3E7013C134BB6
:1001D00053F824309847E8E7BABADECA0000002096
:1001E0008800002000000020B03E00088C000020A5
:1001F00078563412325476988C000020AC020020DD
:100200008C000020B002002078030008780300086A
:1002100078030008780300087803000878030008D2
:1002200008B5FFF773FF00BEFEE71EF0040F0CBF1A
:10023000EFF30880EFF309807146414A10472DE93A
:10024000F04182B004468846124B5E6B9F6B9D6AFC
:100250001B6B13F0020F03D00E4BDB6A002B0CDB81
:100260000D4800F0B5F8CDF800803B4632462946EF
:10027000204600F009F900BEFEE74BF6AB6100F046
:100280007DF90028ECD0034B4FF00042DA6202B057
:10029000BDE8F08100ED00E0383E000800BEFEE75A
:1002A0001EF0040F0CBFEFF30880EFF309807146D6
:1002B000244A10472DE9F04182B004468846084B95
:1002C0005E6B9F6B9D6A074800F082F8CDF8008056
:1002D0003B4632462946204600F0D6F800BEFEE7EF
:1002E00000ED00E0483E00081EF0040F0CBFEFF3E5
:1002F0000880EFF309807146134A10472DE9F04159
:1003000082B004468846084B5E6B9F6B9D6A074827
:1003100000F05EF8CDF800803B4632462946204684
:1003200000F0B2F800BEFEE700ED00E0543E000829
:1003300000BEFEE700BEFEE700BEFEE7704700001D
:100340003F020008B5020008FD02000800BEFEE7FB
:10035000B03E0008000000208C000020B03E0008E5
:1003600000000000000000008C000020B00200200F
:08037000000000000000000085
:10037800FEE7000008B503460C4A12685AB10B4A5A
:100388001068033323F003030344094A934206D851
:10039800064A136008BD054A06491160EFE703F0F5
:1003A80081F80C2303604FF0FF30F3E79000002042
:1003B800004C0020B002002001230360014B0B60B9
:1003C800704700BF040000200FB400B583B004AB31
:1003D80053F8042B01938021064803F09DF8002868
:1003E80003DD0146034800F037F803B05DF804EB7D
:1003F80004B07047980000202DE9F04385B004460A
:100408000F4643560BB10E461EE0042528462146EA
:10041800ABBE0446384605B0BDE8F08314F9011BAD
:1004280004AA1A4402F8101C0133AB42F6D304AAFA
:100438001344002203F8102C4FF00408E946404604
:100448004946ABBE8046761B002EE3D03546102EBB
:1004580028BF10250023E8E708B5FFF7CDFF08BD42
:1004680008B500F0FDF8024A024B9A6008BD00BFCB
:100478000000000800ED00E008B500F019F908BD1B
:10048800F8B504460D4617461E462748FFF79CFF59
:1004980021682648FFF798FF61682548FFF794FF11
:1004A800A1682448FFF790FFE1682348FFF78CFF15
:1004B80021692248FFF788FF61692148FFF784FF17
:1004C800A1692048FFF780FFE1691F48FFF77CFF1B
:1004D8001E48FFF779FF29461D48FFF775FF1D4C99
:1004E800E16A1D48FFF770FF216B1C48FFF76CFF9E
:1004F800E16B1B48FFF768FF15F0800F0AD115F470
:10050800004F0CD11748FFF75FFF06991648FFF711
:100518005BFFF8BD39461548FFF756FFEFE7314650
:100528001348FFF751FFEDE71C3D00082C3D00087C
:100538003C3D00084C3D00085C3D00086C3D00084F
:100548007C3D00088C3D00089C3D0008AC3D00083F
:10055800B83D000800ED00E0C83D0008D83D00089F
:10056800E83D0008183E0008203E0008F83D000855
:10057800083E000883691A888A4201D00020704723
:100588000268033A012A03D80233836101207047C5
:100598000020704782B00023019300932C4A13680F
:1005A80043F4803313602A4B1B6803F40033009331
:1005B800019B01330193009B1BB9019BB3F5A06F0D
:1005C800F1D1234B1B6813F4003F06D0012300939D
:1005D800009B012B04D002B0704700230093F7E77B
:1005E8001C4B1A6842F010021A601A6822F00302C3
:1005F8001A601A6842F002021A60A3F580535A681A
:100608005A605A685A605A6842F480625A605A6856
:1006180022F47C125A605A6842F4E8125A601A6846
:1006280042F080721A600A4B1B6813F0007FFAD000
:10063800074B5A6822F003025A605A6842F00202D5
:100648005A60034B5B6803F00C03082BF9D1C2E72F
:10065800001002400020024008B5FFF79BFF08BDCC
:1006680008B5104B1A6842F001021A6059680E4A20
:100678000A405A601A6822F0847222F480321A60A2
:100688001A6822F480221A605A6822F4FE025A601C
:100698004FF41F029A60FFF7DFFF044B4FF0006230
:1006A8009A6008BD001002400000FFF800ED00E06D
:1006B8001F4B5B6803F00C03042B15D0082B17D0D5
:1006C8001BB11C4B1C4A1A6002E01A4B1A4A1A60EA
:1006D800174B5B68C3F30313184AD35CDAB21549A6
:1006E8000B68D3400B607047124B134A1A60EFE750
:1006F8000F4A53685268C3F38343023312F4803FAE
:100708000AD00B4A526812F4003F0BD00C4A02FB85
:1007180003F3084A1360DBE7094A02FB03F3054ABF
:100728001360D5E7044A02FB03F3024A1360CFE7DC
:10073800001002401C00002000127A000C0000206B
:1007480000093D0030B41D4B01F11B0212019D1838
:100758009C58640D04709A58C2F3400282726A6809
:1007680002F00F02427203EB0113D3F8B821427072
:10077800D3F8B821120A8270B3F8BA21C27093F87C
:10078800BB210271D3F8BC214271D3F8BC21120AF3
:100798008271B3F8BE21C27193F8BF31037231B1CF
:1007A800064A136943F02003136130BC7047034ABB
:1007B800D36843F02003D360F7E700BF006400402C
:1007C80038B501210C2000F073FA02210C2000F04A
:1007D800DDFA00210B2000F06BFA01210B2000F05C
:1007E800D5FA132000F042FF142000F03FFF002349
:1007F80015E0324D05EBC302102111710020507134
:100808002F4C03EB43025100621845F8332003F1E3
:100818000A056552FF21D17090700133DBB2012BBC
:10082800E7D9264B1A680A211171FB2151719A6880
:10083800012111719B68FD225A71224A136823F025
:10084800020343F0050323F0080343F0700323F485
:10085800803323F08A031360536923F0010343F0C4
:10086800020323F00C0343F0100323F4766323F40C
:1008780060335361D36914491940144B0B43D36156
:10088800D2F8004244F00104002307E003F190018C
:100898000C4A002042F821000133DBB21B2BF5D9AA
:1008A800084A6FF07043C2F804320023C2F80C32D1
:1008B80024F00104C2F8004238BD00BF1C0100202A
:1008C8002C0100200064004000FE80FCFF014B0367
:1008D800054A136823F003031360034B5B6813F0A6
:1008E800010FFAD1704700BF0064004018B1034AF5
:1008F80010601E2070472820704700BF1801002094
:1009080010B582B000238DF807309DF80730DBB2B0
:10091800022B0FD83F4B9B689DF807201A32D34013
:1009280013F0010F06D19DF807300133DBB28DF8C3
:100938000730EAE79DF80730DBB2022B59D89DF85B
:100948000730344A18331B010021D1509DF8073075
:10095800047818331B01D15841EA4451D150837AA5
:10096800012B4CD00279C3781B0443EA02638278D6
:1009780043EA022342789DF807101343254A02EB05
:100988000111C1F88831017AC3791B0443EA016374
:10099800817943EA012344799DF80710234302EB48
:1009A8000112C2F88C319DF807301A4A183302EB4D
:1009B8000313596821F00F0159609DF80730407AF8
:1009C800183302EB0313596801435960536943F024
:1009D800010353619DF8073018331B01D15841F0CA
:1009E8000101D15000210C4800F0A2FA002002B009
:1009F80010BD0121084800F09BFA0120F7E79DF897
:100A08000730114618331B01D25842F00202CA506F
:100A1800C9E700BF006400401C010020F8B52C4B5A
:100A28001B78372B3AD813F0010F40D107787F0590
:100A38004278012A38D0274CD4F8001241F001013D
:100A4800C4F800129A08012595406FEA050CD4F8FD
:100A58001C220CEA020EC4F81CE25E08903654F818
:100A68002620174344F82670807840BBD4F8140237
:100A780000EA0C00C4F81402164821F00101C0F87D
:100A880000124EEA0502C0F81C220133104A137006
:100A98000021114800F04CFA1E20F8BD01210E4833
:100AA80000F046FA0220F8E747F48017C3E7077812
:100AB8007F014278012ABED147F01007BBE7012821
:100AC800DAD1044CD4F814022843C4F81402D3E74A
:100AD800380100200064004024010020104B9B686E
:100AE80013F0010F03D043F001030D4A93600C4B40
:100AF8009B6813F4807F03D043F48073084A9360A3
:100B0800074B9B6813F4803F03D043F48033044AB7
:100B18009360034A536923F001035361704700BF90
:100B2800006400400D4BDB6813F0030F00D17047E1
:100B380010B500210A48FFF705FE0A4B1C6864B18E
:100B4800074B1A7A597A42EA0122997A42EA014213
:100B58001868596822F07F42A04710BD0064004021
:100B680008020020180100200D4B1B6913F0030F29
:100B780000D1704710B501210A48FFF7E3FD0A4B81
:100B88001C6864B1074B1A7A597A42EA0122997AA9
:100B980042EA01421868596822F07F42A04710BD16
:100BA8000064004008020020180100200F280CD91A
:100BB8001F2814D92F2810D80D4B9B6800F00F0060
:100BC80023FA00F000F0010307E00A4B9B6800F0ED
:100BD8000F0023FA00F000F0010318467047064B97
:100BE8009B6800F00F0023FA00F000F00103F4E71F
:100BF8000010014000080140000C01400F281AD8DD
:100C080001290FD0002941D101F1804101F584313A
:100C18000B6900F00F0000F110020120904003431F
:100C28000B6170471F4A136900F00F0101208840CB
:100C38001843106170471F2816D801290BD029BB0B
:100C480019490B6900F00F0000F1100201209040D3
:100C580003430B617047144A136900F00F01012028
:100C680088401843106170472F280FD801290ED0EB
:100C780061B901F1804101F588310B6900F00F007D
:100C88001030012202FA00F0184308617047074942
:100C98000B6900F00F00012202FA00F003430B6118
:100CA800704700BF00080140000C014000100140DF
:100CB80010B400F00F030F281FD8072B0ED83048A8
:100CC80002689B000F249C4022EA0402026002682A
:100CD80001FA03F31343036010BC704728484468C3
:100CE800083B9A000F23934024EA030343604368B8
:100CF80001FA02F21A434260EEE71F281ED8072BBA
:100D08000DD8204802689B000F249C4022EA040268
:100D18000260026801FA03F313430360DCE7194831
:100D28004268083B9B000F249C4022EA0402426070
:100D3800426801FA03F313434360CDE72F28CBD869
:100D4800072B0ED9104A5068083B9B000F249C4083
:100D580020EA04005060506801FA03F3034353602B
:100D6800BAE7094802689B000F249C4022EA040263
:100D78000260026801FA03F313430360ACE700BFA3
:100D880000080140000C01400010014010B400F0C0
:100D98000F030A1FD2B2012A1FD9FF220F2838D801
:100DA800FF2A08D0012A1CD04F4CE2680120984045
:100DB80022EA0002E260072B1AD84B4A10689B000F
:100DC800023301249C4020EA04001060106801FAF4
:100DD80003F30343136010BC704701F00102490894
:100DE800DCE7414CE268012098400243E260E2E718
:100DF800083BDBB23C4A50689B00023301249C400C
:100E080020EA04005060506801FA03F3034353607A
:100E1800E1E71F2832D8FF2A08D0012A17D0334C1F
:100E2800E2680120984022EA0002E260072B15D808
:100E38002E4A10689B00023301249C4020EA0400DB
:100E48001060106801FA03F303431360C3E7274CEB
:100E5800E268012098400243E260E7E7083BDBB222
:100E6800224A50689B00023301249C4020EA040077
:100E780050605068994001435160ACE72F28AAD8C8
:100E8800FF2A08D0012A18D0194CE268012098409E
:100E980022EA0002E260072B16D9083BDBB2144AAB
:100EA80050689B00023301249C4020EA04005060F3
:100EB80050689940014351608DE70D4CE26801206C
:100EC80098400243E260E6E7094A10689B00023353
:100ED80001249C4020EA04001060106801FA03F322
:100EE8000343136077E700BF00080140000C01408E
:100EF80000100140037943F0070303F0EF03037187
:100F08000268927812F0010F03D123F008030371ED
:100F1800704743F0080303717047022303710368A5
:100F28009B7813F0010F01D00A230371704700006A
:100F380038B5334B1C78012C02D00024204638BD2C
:100F48000546F9B190F90530026892F904209342F8
:100F580008DA002B03DB013343710024EEE7002499
:100F68004471EBE7037913F0010F01D00024E5E7A2
:100F7800FFF7C0FF2B682A791988A02000F034FAFF
:100F88000224DBE790F90530006890F905209342C8
:100F980009DD002B03DD00236B710C46CEE7013B16
:100FA8006B710C46CAE72A7912F0010F02D112F0D0
:100FB800100F1FD002F0EE022A7112F0040F0FD0AA
:100FC800837813F0040F01D10C46B7E72846FFF7E2
:100FD800A4FF2B682A791988A02000F005FAADE74C
:100FE8002846FFF79AFF2B682A791988A02000F075
:100FF800FBF9A3E70188A02000F0F6F99EE700BFFF
:1010080021000020014B1860704700BF8C020020AF
:1010180084B030B585B008AC84E80F0055238DF84E
:101028000030BDF85450C5F30B05072D30D8EBB28E
:101038008DF809309DF80930DBB28DF801309DF844
:1010480009300133DBB28DF809300023ADF80E30DA
:1010580011E0BDF80E20BDF80E30013308A90A448E
:10106800927804A90B4403F80F2CBDF80E30013315
:101078009BB2ADF80E30BDF80E309BB29D42E8D859
:101088006846FFF73DFC05B0BDE8304004B0704746
:101098002B0A43F010038DF80130EBB28DF80230C3
:1010A8000123ADF80E3012E0BDF80E20013ABDF86C
:1010B8000E30013308A90A44927804A90B4403F8B6
:1010C8000F2CBDF80E3001339BB2ADF80E30BDF8D1
:1010D8000E309BB2062BE7D908238DF809306846F5
:1010E800FFF70EFCBDF80E30013B9BB2ADF80E3099
:1010F800012434E0BDF80E10BDF80C30013308A807
:101108000144897804A8034403F80F1CBDF80E3085
:1011180001339BB2ADF80E30BDF80C3001339BB2F1
:10112800ADF80C30BDF80C309BB2062B04D8BDF8D6
:101138000E309BB29342DDD3BDF80C309BB2062B28
:1011480005D8BDF80C300133DBB28DF8093068469C
:10115800FFF7D6FB0134E4B20E2C00D900242A464E
:10116800BDF80E309BB29D428DD944F020038DF816
:1011780001300023ADF80C30D4E700002DE9F0472A
:1011880090B00BAB83E807009DF82C30552B02D0AC
:1011980010B0BDE8F0879DF82D2088490B705623C4
:1011A8004B70130945D19DF83520013A0B46898EBD
:1011B80062F30B0199869B8EC3F30B03072BE7D8C9
:1011C8007F4B00221A8009E0511C10AB0B4413F826
:1011D800130C7A4B1A449070794B1980774B9B8E7D
:1011E800C3F30B03764A12889342EDD8754BD3F8B4
:1011F8000080724CD4F800A0D4F80490D4F808E029
:10120800D4F80CC004F110056F4630343E46286807
:101218006968AA68EB680FC610353746A542F5D14C
:101228002868696803C75046494672466346C047FE
:10123800AEE7012B11D0022B4BD0032BA8D102F023
:101248000F02614B1A709DF82E205A709DF82F20BE
:101258009A705E4B1B6898479AE7584B998E6FF3C4
:101268000B019986120102F0F002998E62F30B01CC
:1012780099869A8EC2F30B029DF82E100A43998E16
:1012880062F30B0199869A8EBDF83C3062F30B032A
:10129800ADF83C304A4B00221A800AE09A1C10A98B
:1012A8000A4412F8131C454A1A4491700133444AFF
:1012B8001380434B1B88052BF0D9BDF83C30C3F392
:1012C8000B03063BBDF83C2063F30B02ADF83C2052
:1012D8005EE702F00F028DF83B203D4B1B789DF82E
:1012E8003B20D2B293427FF453AF0133DBB2384A8A
:1012F80013700F2B07D0BDF83C30C3F30B03082B3A
:1013080020D801222DE0134600221A70F3E72C485A
:10131800028810A9194411F8134C284911448C70FB
:101328000132028001339BB2072BF0D9BDF83C3063
:10133800C3F30B03083BBDF83C2063F30B02ADF885
:101348003C2025E70123EFE71D48038810A9114435
:1013580011F8134C194919448C70013292B20133B7
:101368000380BDF83C30C3F30B0301339A42EBDD35
:10137800144BD3F80080114CD4F800A0D4F8049092
:10138800D4F808E0D4F80CC004F110056F463034E6
:101398003E4628686968AA68EB680FC61035374664
:1013A800A542F5D12868696803C750464946724680
:1013B8006346C047024B00221A80E9E64C0200202F
:1013C8003A0100208C0200208402002088020020BC
:1013D80020000020012302E000BF01339BB248F245
:1013E800E8029342F8D9704700B583B00B0A8DF82C
:1013F80004308DF805108DF80620019BADF80030FB
:101408001B0C8DF802300322694600F093F8FFF7B1
:10141800E1FF03B05DF804FB00B583B00B46012281
:101428000DF1070100F0C2F89DF8070003B05DF860
:1014380004FB00B583B00B0A8DF804308DF8051055
:10144800FF238DF80630032201A900F073F8FFF797
:10145800C1FF03B05DF804FB2DE9F04180460F465B
:1014680015461E46002407E0E11989B24046FFF7F9
:10147800D3FF30550134A4B2AC42F5D3BDE8F081B6
:10148800F8B507460E461546002406E0A11989B2AC
:101498003846FFF7CEFF0134A4B2AC42F6D3F8BD0C
:1014A8002DE9F043A3B007460E461546002413E085
:1014B8009A1C22A90A44FF2102F8841C0133DBB2DA
:1014C80013F0800FF4D0822201A9384600F032F8D8
:1014D800FFF780FF0134A4B2AC4211D2F3019BB2F2
:1014E8004FEA13295FFA83F8802200210DF10600E4
:1014F80001F0DEFF8DF804908DF805800023DFE70A
:1015080023B0BDE8F0830000094B08225A604FF46D
:101518007442DA6103221A621A6842F001021A6000
:101528001A6842F480621A604FF480429A607047E9
:101538000054004010B483B01B4C236843F00103EF
:101548002360002A2CD01446174A136843F480738A
:101558001360154B5B6913F0010FFAD0124B186139
:10156800114B5B6913F0020FFAD00F4B9B69019383
:101578000022A2420FD20C4B5B6913F0800FF8D007
:10158800885C094B1861084B5B6913F0800FFAD02F
:101598000132D2B2EDE7044A136843F400731360D2
:1015A80003B010BC704700BF0054004030B482B094
:1015B8002D4C256845F001052560256845F48075A2
:1015C8002560294C646914F0010FFAD0264C20617B
:1015D800254C646914F0020FFAD0234CA5690195D3
:1015E8001D0A2561204C646914F0800FFAD0DBB223
:1015F8001D4C23611C4B5B6913F0800FFAD01A4C09
:10160800236843F480732360174B5B6913F0010F61
:10161800FAD040F00100144B1861134B5B6913F0CA
:10162800020FFAD0104B9B690193002009E00E4B82
:101638005B6913F0400FFAD00B4B1B690B54013058
:10164800C0B2904208D2531E9842F0D1064C23688B
:1016580023F480632360EAE7034A136843F40073C2
:10166800136002B030BC7047005400401F2809D9ED
:101678003F2806D82038C0B2012303FA00F0044BF3
:1016880018607047012303FA00F0024B1860704796
:1016980004E100E000E100E0014B024A1A607047F3
:1016A8000CED00E00400FA05034B81221A600433B4
:1016B80000221A60704700BF001002401F291CD882
:1016C80001280BD010B1022810D070470B480368CE
:1016D800012202FA01F119430160704708480368C2
:1016E800012202FA01F119430160704705480368B5
:1016F800012202FA01F119430160704714100240F7
:101708001C10024018100240032816D8DFE800F029
:1017180002070C11013989B2084B19807047013949
:1017280089B2074B19807047013989B2054B198076
:101738007047013989B2044B19807047280000406E
:101748002804004028080040280C0040032800F224
:10175800CD80DFE800F00236689A4FF080431A889F
:1017680092B222F0100292B21A801A8842F008024D
:101778001A801A8892B222F0020292B21A801A884B
:1017880042F004021A805A4A11805A490A8842F0E3
:1017980001020A801A8842F001021A80564B1B88FF
:1017A80013F0010FFAD04FF08042138843F0020380
:1017B8001380103213889BB223F001039BB213806D
:1017C80070474E4B1A8892B222F0100292B21A80D9
:1017D8001A8842F008021A801A8892B222F002028D
:1017E80092B21A801A8842F004021A80444A118080
:1017F80044490A8842F001020A801A8842F001022C
:101808001A80414B1B8813F0010FFAD03B4A13880A
:1018180043F002031380103213889BB223F00103B4
:101828009BB213807047394B1A8892B222F010028B
:1018380092B21A801A8842F008021A801A8892B264
:1018480022F0020292B21A801A8842F004021A8028
:101858002F4A11802F490A8842F001020A801A880B
:1018680042F001021A802C4B1B8813F0010FFAD0AA
:10187800264A138843F002031380103213889BB260
:1018880023F001039BB213807047244B1A8892B24D
:1018980022F0100292B21A801A8842F008021A80C6
:1018A8001A8892B222F0020292B21A801A8842F082
:1018B80004021A801A4A11801A490A8842F0010261
:1018C8000A801A8842F001021A80174B1B8813F00D
:1018D800010FFAD0114A138843F002031380103223
:1018E80013889BB223F001039BB21380704700BF9B
:1018F8002C0000401400004010000040000400408C
:101908002C0400401404004010040040000800406B
:101918002C0800401408004010080040000C00404B
:101928002C0C0040140C0040100C0040032813D865
:10193800DFE800F002060A0E084B188880B27047EC
:10194800074B188880B27047064B188880B27047DA
:10195800054B188880B2704700207047240000406B
:101968002404004024080040240C0040012905D02C
:10197800032838D8DFE800F020262C32032832D894
:10198800DFE800F002080E14174B1A80083B00220B
:101998001A807047154B1A80083B00221A8070473E
:1019A800134B1A80083B00221A807047114B1A808B
:1019B800083B00221A80704700230B4A1380083A1C
:1019C800138070470023094A1380083A1380704730
:1019D8000023074A1380083A138070470023054AFA
:1019E8001380083A138070472C0000402C040040F4
:1019F8002C0800402C0C0040012905D0032842D8AF
:101A0800DFE800F0212A323A03283CD8DFE800F06A
:101A180002090F154FF08042138843F00103138029
:101A28007047194A138843F0010313807047174A17
:101A3800138843F0010313807047154A138843F055
:101A48000103138070474FF0804213889BB223F044
:101A580001039BB2138070470B4A13889BB223F093
:101A680001039BB213807047084A13889BB223F086
:101A780001039BB213807047054A13889BB223F079
:101A880001039BB213807047000400400008004027
:101A9800000C004008B50F4B9B787BB94FF0804293
:101AA800138843F0020313800B4B00221A800B4A61
:101AB80013889BB223F001039BB21380084B9B68E9
:101AC8009847084A13889BB223F001039BB21380FE
:101AD80008BD00BF540100202C0000400C0000404D
:101AE8003C0100201000004008B50E4BDB7873B9AC
:101AF8000D4A138843F0020313800C4B00221A800E
:101B08000B4A13889BB223F001039BB21380094B45
:101B1800DB689847084A13889BB223F001039BB2FD
:101B2800138008BD54010020000400402C0400402C
:101B38000C0400403C0100201004004008B50E4B86
:101B48001B7973B90D4A138843F0020313800C4BB9
:101B580000221A800B4A13889BB223F001039BB220
:101B68001380094B1B699847084A13889BB223F0D6
:101B780001039BB2138008BD5401002000080040F7
:101B88002C0800400C0800403C01002010080040D0
:101B980008B5044B1B6803B19847024B5B6803B157
:101BA800984708BD5C01002030B599B055238DF8E1
:101BB800283056238DF82930BDF85C30032262F3B3
:101BC8000B03ADF85C307F238DF82A308DF82B009D
:101BD8008DF82C106C460EAD0FCD0FC40FCD0FC471
:101BE80095E8030044F8040B21800AAB0FCBFFF7FC
:101BF8000FFA19B030BD000084B008B50DF1080C1B
:101C08008CE80F009DF80A0010281ED0112823D058
:101C1800142825D0192827D0222829D02E282BD0BF
:101C280034282DD0362836D037283FD03E2848D003
:101C380085284AD1274B1B78032B02D07F21FFF739
:101C4800B3FF02A800F08EF802E0604600F0B6F894
:101C5800BDE8084004B0704702A800F023F9F7E790
:101C680002A800F063F8F3E702A800F03FF9EFE7F5
:101C780002A800F0E7F9EBE702A800F04BFCE7E761
:101C8800144B1B78022B02D07F21FFF78DFF02A88F
:101C980000F0ACFADCE70F4B1B78022B02D07F2157
:101CA800FFF782FF02A800F085FBD1E7094B1B78FC
:101CB800022B02D07F21FFF777FF02A800F012FB6A
:101CC800C6E702A800F052FBC2E71121FFF76CFF3C
:101CD800BEE700BF2200002030B599B055238DF82B
:101CE800283056238DF82930BDF85C3061F30B039A
:101CF800ADF85C30002306E0C45C18AA1A4402F868
:101D0800364C0133DBB28B42F6D36C460EAD0FCDA9
:101D18000FC40FCD0FC495E8030044F8040B2180CD
:101D28000AAB0FCBFFF774F919B030BD00B583B01B
:101D3800838EC3F30B03012B06D013211420FFF766
:101D480033FF03B05DF804FB19220021A020FFF740
:101D580097FB02A8542300F8043D0121FFF7BCFFBC
:101D6800EFE7000000B583B0838EC3F30B03022BAB
:101D780008D1C378012B0CD0022B17D10E4A0221AF
:101D8800117009E013218520FFF70EFF03B05DF8FD
:101D980004FB094A01211170C5228DF804208DF831
:101DA8000530022101A8FFF797FFEFE712218520F0
:101DB800FFF7FAFEEAE700BF2100002000B583B074
:101DC800838EC3F30B03022B1BD1C378012B1FD0C7
:101DD800022B2ED0032B3BD0042B56D12D4B1B7836
:101DE800022B4DD02C4B9B8902A820F8043D0221E0
:101DF800FFF772FF294B00221A70264B04221A7033
:101E080003E013211020FFF7CFFE03B05DF804FBB9
:101E1800214B1B8802A820F8043D0221FFF75CFF34
:101E28001E4B00221A7001231A4A13701C4A1370A1
:101E3800EBE7194B9B8802A820F8043D0221FFF725
:101E48004BFF164B00221A70124B02221A70DCE765
:101E5800104B1B78022B0ED00F4B1B8902A820F8C1
:101E6800043D0221FFF738FF0C4B00221A70094B82
:101E780003221A70C9E722211020FFF795FEC4E754
:101E880022211020FFF790FEBFE712211020FFF754
:101E98008BFEBAE722000020643E0008640100209F
:101EA8002100002000B583B0838EC3F30B03022BFF
:101EB80007D1C378032B0BD012211120FFF774FE32
:101EC80003E013211120FFF76FFE03B05DF804FB58
:101ED800054B1B8802A820F8043D0221FFF7FCFEF1
:101EE800FFF7DAFBF1E700BF743E0008F0B589B0F0
:101EF80000AF838EC3F30B03032B0AD10546C378C7
:101F08000F2B0DD0112B68D012211920FFF74CFE92
:101F180003E013211920FFF747FE2437BD46F0BD23
:101F28003B1D19220021A020FFF796FA00231C462A
:101F38000EE0002107F120021A4402F81C1C05E0FB
:101F480007F120021144002201F81C2C0133DBB2F6
:101F5800182B0DD8194607F120021A4412F81C2C28
:101F6800FF2AE6D028790242EAD00134E4B2EDE74C
:101F780062006E4602F10A0323F00703ADEB030D7E
:101F88006D4603325921684601F092FA0F238DF805
:101F980001301F238DF802300023032201E00133B2
:101FA800DBB2182B11D807F12001194411F81C1CB9
:101FB8000029F4D0AB54511C07F12000184410F844
:101FC8001C0C68540232D2B2E9E761000331C9B28D
:101FD8002846FFF781FEB5469FE73B1D19220021E1
:101FE800A020FFF739FA002318460EE0002107F178
:101FF80020021A4402F81C1C05E007F120021144D3
:10200800002201F81C2C0133DBB2182B0DD819461D
:1020180007F120021A4412F81C2CFF2AE6D02C796A
:102028002242EAD00130C0B2EDE759233B701123B8
:102038007B701F23BB70F87004213846FFF74CFEF5
:102048006BE7000070B586B001252C468BE06E1C4E
:10205800F6B2614B1A44927806AB2B4403F8142C61
:102068005E4B1B689847AB1CDBB206AA164406F801
:10207800140C0335EDB2C0F30720134403F8140C15
:102088006FE06E1CF6B2544B1A44927806AB2B44A0
:1020980003F8142C524B1B689847AB1CDBB206AAFA
:1020A800164406F8140CEA1CD2B2C0F3072106AE97
:1020B800334403F8141C2B1DDBB2C0F30741324430
:1020C80002F8141C0535EDB2000E334403F8140C65
:1020D80047E06E1CF6B2404B1A44927806AB2B448C
:1020E80003F8142C3F4B1B689847AB1CDBB206AABD
:1020F800164406F8140CEA1CD2B2C0F3072106AE47
:10210800334403F8141C2B1DDBB2C0F307413244DF
:1021180002F8141C0535EDB2000E334403F8140C14
:102128001FE06E1CF6B22C4B1A44927806AB2B4477
:1021380003F8142C2C4B1B689847AB1CDBB206AA7F
:10214800164406F8140C0335EDB2C0F30720134407
:1021580003F8140C05E0204B9B8EC3F30B03012BF3
:1021680034D90134E4B222461B4B9B8EC3F30B03D4
:102178009C421DDC184B9B8EC3F30B03012BEAD842
:10218800154B9B8EC3F30B03FF2BE4D9124B13445F
:102198009B78013B032B17D801A151F823F000BF0E
:1021A800572000088B200008DB2000082B2100089E
:1021B800002169B906A8622300F8143D691EC9B256
:1021C800FFF78AFD06B070BD3121F2E71321F0E771
:1021D8002220FFF7E9FCF5E74C02002098020020D6
:1021E800900200209C02002094020020F0B583B0E9
:1021F800354B00221A60354B1B78012B13D0838E88
:10220800C3F30B03022B13D9027902F00F0411094F
:10221800042C02D109B1C2787AB131213420FFF7F8
:10222800C3FC03B0F0BD22213420FFF7BDFCF8E762
:1022380013213420FFF7B8FCF3E726460D460C447B
:102248000334A34210D18A4213D2F31C134403442B
:102258009B780132AC1AE40003FA04F41A4F3B6885
:1022680023433B60D2B2EEE713213420FFF79CFCF6
:10227800D7E74379082B03D1C388B3F5805F04D02F
:1022880031213420FFF790FCCBE7037A002BF7D1FC
:102298000D4B1B68002BF3D001230C4A13700C4A1A
:1022A800137000230B4A13600B4A13800B4A1380E8
:1022B8000B4B1B68ADF804301B0C8DF8063003215E
:1022C80001A8FFF709FDACE7A00200206501002086
:1022D8002300002068010020660100206C01002016
:1022E800783E000870B582B01B4B1C681B4B1B78EE
:1022F800012B05D11A4B1A681A4B1B689A4205D054
:1023080024213720FFF750FC02B070BD838EC3F341
:102318000B03012B04D013213720FFF745FCF3E70B
:102328000E4B00221A7002AD772305F8043D0E4BC0
:102338001A88D6B2120A4FF6FE71A020FFF754F899
:1023480032464FF6FD71A020FFF74EF801212846CE
:10235800FFF7C2FCA047D7E704000008650100208A
:1023680068010020A00200206601002010B582B09C
:10237800838EC3F30B03022B06D1C37853B112210A
:102388003E20FFF711FC03E013213E20FFF70CFC71
:1023980002B010BD7E238DF8043000248DF805406E
:1023A800022101A8FFF798FC014B1C70F0E700BF61
:1023B80064010020F0B583B0504B1B78012B1CD171
:1023C80004464F4B19684F4B186881421BD0A38EA7
:1023D800C3F30B0303F6FD72C2F30B022F2A17D8BF
:1023E800E578494A1278954217D0013A95427BD050
:1023F80073213620FFF7D8FB03E024213620FFF7AE
:10240800D3FB03B0F0BD24213620FFF7CDFBF8E75E
:1024180013213620FFF7C8FBF3E7091A023B99425C
:1024280005D323793A2B07D1032600271BE0712116
:102438003620FFF7B9FBE4E771213620FFF7B4FB3C
:10244800DFE71201D2B203F00F0343EA02052F4B74
:1024580019884A1C1A802A46A020FEF7C5FF3D4469
:10246800AFB20236F6B23346A28EC2F30B02911E09
:102478008E420DDAA21992783A2A04D00133234405
:102488009B783A2BDDD171213620FFF78DFBB8E719
:102498007B42214489780901CDB2511E214491F92A
:1024A800021001F00F012943DBB28B4204D07121E5
:1024B8003620FFF779FBA4E712490B681344023B67
:1024C8000B60114A137801331370114A13880133D2
:1024D800138076238DF80430E3788DF805300221D7
:1024E80001A8FFF7F9FB8CE776238DF804308DF807
:1024F8000550022101A8FFF7EFFB82E765010020E4
:10250800A002002068010020230000206C010020A8
:102518006601002070B586B00025294601245DE0DB
:102528003E4B9B8EC3F30B03FF2B51D93B4B1344FC
:102538009B78DBB2052B03D0062B25D0312548E04C
:102548004E1CF6B2354B1A44927806A8014401F89D
:10255800142C621CD2B21A449278A11CC9B2194434
:10256800887842EA0022E11CC9B21944887842EA14
:1025780000420434E4B223449878294B1B6842EAA9
:1025880000609847314624E04E1CF6B2234B1A44AB
:10259800927806A8014401F8142C621CD2B21A449D
:1025A8009278A11CC9B21944887842EA0022E11C39
:1025B800C9B21944887842EA00420434E4B2234498
:1025C8009878184B1B6842EA00609847314600E04B
:1025D800132595B90134E4B20131C9B222460F4B33
:1025E8009B8EC3F30B039C4207DA0C4B9B8EC3F301
:1025F8000B03012B94D91325EBE74DB906A86E23DD
:1026080000F8143D0139C9B2FFF766FB06B070BD8A
:1026180029462E20FFF7C8FAF8E700BF4C02002031
:10262800A8020020A402002038B502211920FEF7D4
:102638003FFB02211B20FEF73BFB00211920FEF780
:10264800A5FB00211B20FEF7A1FB00211920FEF7A6
:10265800D5FA00211B20FEF7D1FA00211820FEF739
:1026680027FB00211A20FEF723FB04211820FEF780
:102678008DFB04211A20FEF789FB08210220FFF7B1
:1026880043F8002317E00D4D05EBC302102111712B
:10269800002454710A4803EB43025100421845F8DC
:1026A80033209470435219211171E7215171FF2190
:1026B800D1700133DBB2092BE5D938BDAC0100205C
:1026C8007001002000000000F8B50E468C4B002277
:1026D8001A7001281ED001211B20FEF78FFA0A214B
:1026E8000220FFF733F800211B20FEF787FA4FF688
:1026F800FF7201210220FFF739F900241A20FEF7A2
:1027080055FA002840F08C80FF2C00F089800134B5
:10271800E4B2F3E701211920FEF770FA0A2102203A
:10272800FFF714F800211920FEF768FA4FF6FF7238
:1027380001210220FFF71AF9002401E00134E4B274
:102748001820FEF733FA08B9FF2CF7D1FF2C2AD14D
:1027580000250027FF2C49D06A4C00212046FEF7AF
:10276800E7FB002104F10800FEF7E2FB40F2E56315
:102778009D4240D8012104F11000FEF7D9FBA5F2D3
:10278800E6639BB241F2250293423BD801215E48A1
:10279800FEF7CEFB43F69D139D423AD901215B48D3
:1027A800FEF7C6FB6DE001210220FFF725F918208E
:1027B800FEF7FCF90128FAD002210846FFF71CF9B8
:1027C8000220FFF7B3F8054600F014FE00F0A2FA65
:1027D80049A3D3E9002300F01FFC00F005FD0746DC
:1027E800002202210846FFF7C1F8B3E70121454856
:1027F800FEF79EFB45E000214548FEF799FB0123C3
:102808003370BCE700214048FEF792FB0223337087
:10281800C0E700213D48FEF78BFB0323337030E00F
:10282800FF2C30D100250027FF2C4FD0354C00213C
:1028380004F12800FEF77CFB002104F13000FEF7CC
:1028480077FB40F2E5639D4245D8012104F1380049
:10285800FEF76EFB01233370A5F2E6639BB241F2EB
:10286800250293423CD801212A48FEF761FB022346
:10287800337041F20B739D4237D800212648FEF78A
:1028880057FB3846F8BD01210220FFF7B5F81A209A
:10289800FEF78CF90128FAD002210846FFF7ACF8B8
:1028A8000220FFF743F8054600F0A4FD00F032FAD5
:1028B80011A3D3E9002300F0AFFB00F095FC074615
:1028C800002202210846FFF751F8ADE7012113481D
:1028D800FEF72EFBD5E700211148FEF729FBBBE7E1
:1028E80000210C48FEF724FBC3E701210A48FEF744
:1028F8001FFB03233370C4E7295C8FC2F5684D4082
:102908006E010020AC010020C4010020CC01002091
:10291800BC010020EC010020F4010020D4010020BB
:10292800E401002070B588B000248DF81F40FEF740
:10293800BBFE02210120FEF7C1FE03210220FEF7A3
:10294800BDFE15210120FEF7B9FE19210120FEF771
:10295800B5FE02210846FEF7B1FE03AB0593182623
:10296800ADF80C60FF238DF811308DF8104001256B
:102978008DF80F508DF8194010238DF818308DF808
:102988000E40FDF71DFFFDF7A3FF29461620FEF7B1
:102998008FF903211620FEF7F9F929461720FEF7CB
:1029A80087F903211720FEF7F1F9FEF7ADFD294657
:1029B8002046FEF77DF921462046FEF7E7F9214635
:1029C8002046FEF71BF92A462146A020FEF768FD9F
:1029D80029462046FEF712F955238DF808308DF860
:1029E80009408DF80A4002A8FEF718F81548FDF7C7
:1029F8007DFF294605A8FEF79BFA1721A020FEF7C0
:102A08000BFD8DF81F003146A020FEF705FD8DF85F
:102A18001F000D48FEF7F6FAFFF706FE00240DF139
:102A280007010220FFF750FE0DF107010120FFF713
:102A38004BFE0134E4B2322CF1D100238DF81F3063
:102A4800ECE700BF85110008011C000881F0004177
:102A580002E000BF83F0004330B54FEA41044FEA7B
:102A6800430594EA050F08BF90EA020F1FBF54EA16
:102A7800000C55EA020C7FEA645C7FEA655C00F0B2
:102A8800E2804FEA5454D4EB5555B8BF6D420CDD83
:102A98002C4480EA020281EA030382EA000083EA06
:102AA800010180EA020281EA0303362D88BF30BDA6
:102AB80011F0004F4FEA01314FF4801C4CEA1131FC
:102AC80002D0404261EB410113F0004F4FEA03335B
:102AD8004CEA133302D0524263EB430394EA050FE6
:102AE80000F0A780A4F10104D5F1200E0DDB02FA55
:102AF8000EFC22FA05F2801841F1000103FA0EF2E9
:102B0800801843FA05F359410EE0A5F120050EF1AE
:102B1800200E012A03FA0EFC28BF4CF0020C43FADF
:102B280005F3C01851EBE37101F0004507D54FF0EC
:102B3800000EDCF1000C7EEB00006EEB0101B1F53C
:102B4800801F1BD3B1F5001F0CD349085FEA300082
:102B58004FEA3C0C04F101044FEA445212F5800F8D
:102B680080F09A80BCF1004F08BF5FEA500C50F12A
:102B7800000041EB045141EA050130BD5FEA4C0C0D
:102B8800404141EB010111F4801FA4F10104E9D196
:102B980091F0000F04BF01460020B1FA81F308BF8D
:102BA8002033A3F10B03B3F120020CDA0C3208DD59
:102BB80002F1140CC2F10C0201FA0CF021FA02F134
:102BC8000CE002F11402D8BFC2F1200C01FA02F1A4
:102BD80020FA0CFCDCBF41EA0C019040E41AA2BFC9
:102BE80001EB0451294330BD6FEA04041F3C1CDA91
:102BF8000C340EDC04F11404C4F1200220FA04F0B1
:102C080001FA02F340EA030021FA04F345EA03015A
:102C180030BDC4F10C04C4F1200220FA02F001FA1C
:102C280004F340EA0300294630BD21FA04F029469E
:102C380030BD94F0000F83F4801306BF81F4801137
:102C48000134013D4EE77FEA645C18BF7FEA655CAA
:102C580029D094EA050F08BF90EA020F05D054EA7C
:102C6800000C04BF1946104630BD91EA030F1EBF81
:102C78000021002030BD5FEA545C05D14000494185
:102C880028BF41F0004130BD14F580043CBF01F578
:102C9800801130BD01F0004545F0FE4141F470015E
:102CA8004FF0000030BD7FEA645C1ABF1946104639
:102CB8007FEA655C1CBF0B46024650EA013406BF3A
:102CC80052EA033591EA030F41F4002130BD00BFF9
:102CD80090F0000F04BF0021704730B54FF48064B6
:102CE80004F132044FF000054FF0000150E700BF37
:102CF80090F0000F04BF0021704730B54FF4806496
:102D080004F1320410F0004548BF40424FF0000182
:102D18003EE700BF42004FEAE2014FEA31014FEAC5
:102D280002701FBF12F07F4393F07F4F81F0605114
:102D3800704732F07F4208BF704793F07F4F04BF5F
:102D480041F40021704730B54FF4607401F000453C
:102D580021F000411CE700BF50EA010208BF70479C
:102D680030B54FF000050AE050EA010208BF70478D
:102D780030B511F0004502D5404261EB41014FF4F6
:102D8800806404F132045FEA915C3FF4D8AE4FF0FE
:102D980003025FEADC0C18BF03325FEADC0C18BFE1
:102DA800033202EBDC02C2F1200300FA03FC20FA32
:102DB80002F001FA03FE40EA0E0021FA02F114447F
:102DC800BDE600BF70B54FF0FF0C4CF4E06C1CEA98
:102DD80011541DBF1CEA135594EA0C0F95EA0C0F09
:102DE80000F0DEF82C4481EA030621EA4C5123EA7C
:102DF8004C5350EA013518BF52EA033541F48011AB
:102E080043F4801338D0A0FB02CE4FF00005E1FB5D
:102E180002E506F00042E0FB03E54FF00006E1FBA7
:102E280003569CF0000F18BF4EF0010EA4F1FF04EA
:102E3800B6F5007F64F5407404D25FEA4E0E6D412A
:102E480046EB060642EAC62141EA55514FEAC5203B
:102E580040EA5E504FEACE2EB4F1FD0C88BFBCF5B7
:102E6800E06F1ED8BEF1004F08BF5FEA500E50F168
:102E7800000041EB045170BD06F0004646EA01012E
:102E880040EA020081EA0301B4EB5C04C2BFD4EB60
:102E98000C0541EA045170BD41F480114FF0000E59
:102EA800013C00F3AB8014F1360FDEBF002001F0C7
:102EB800004170BDC4F10004203C35DA0C341BDC41
:102EC80004F11404C4F1200500FA05F320FA04F013
:102ED80001FA05F240EA020001F0004221F0004147
:102EE80010EBD37021FA04F642EB06015EEA430EBA
:102EF80008BF20EAD37070BDC4F10C04C4F12005EA
:102F080000FA04F320FA05F001FA04F240EA02009C
:102F180001F0004110EBD37041F100015EEA430E6D
:102F280008BF20EAD37070BDC4F1200500FA05F28D
:102F38004EEA020E20FA04F301FA05F243EA02030C
:102F480021FA04F001F0004121FA04F220EA02001B
:102F580000EBD3705EEA430E08BF20EAD37070BD61
:102F680094F0000F0FD101F00046400041EB010141
:102F780011F4801F08BF013CF7D041EA060195F023
:102F8800000F18BF704703F00046520043EB0303DD
:102F980013F4801F08BF013DF7D043EA06037047CA
:102FA80094EA0C0F0CEA135518BF95EA0C0F0CD0D5
:102FB80050EA410618BF52EA4306D1D181EA03011B
:102FC80001F000414FF0000070BD50EA410606BF15
:102FD8001046194652EA430619D094EA0C0F02D15A
:102FE80050EA013613D195EA0C0F05D152EA03369F
:102FF8001CBF104619460AD181EA030101F00041BD
:1030080041F0FE4141F470014FF0000070BD41F005
:10301800FE4141F4780170BD70B54FF0FF0C4CF4DF
:10302800E06C1CEA11541DBF1CEA135594EA0C0FFE
:1030380095EA0C0F00F0A7F8A4EB050481EA030E4B
:1030480052EA03354FEA013100F088804FEA033332
:103058004FF0805545EA131343EA12634FEA022200
:1030680045EA111545EA10654FEA00260EF00041C1
:103078009D4208BF964244F1FD0404F5407402D213
:103088005B084FEA3202B61A65EB03055B084FEAA4
:1030980032024FF480104FF4002CB6EB020E75EBA1
:1030A800030E22BFB61A754640EA0C005B084FEAC9
:1030B8003202B6EB020E75EB030E22BFB61A754646
:1030C80040EA5C005B084FEA3202B6EB020E75EB91
:1030D800030E22BFB61A754640EA9C005B084FEA09
:1030E8003202B6EB020E75EB030E22BFB61A754616
:1030F80040EADC0055EA060E18D04FEA051545EA05
:1031080016754FEA06164FEAC30343EA52734FEAAD
:10311800C2025FEA1C1CC0D111F4801F0BD141EA26
:1031280000014FF000004FF0004CB6E711F4801F8B
:1031380004BF01430020B4F1FD0C88BFBCF5E06F6B
:103148003FF6AFAEB5EB030C04BFB6EB020C5FEA7B
:10315800500C50F1000041EB045170BD0EF0004ED0
:103168004EEA113114EB5C04C2BFD4EB0C0541EA02
:10317800045170BD41F480114FF0000E013C90E6FF
:1031880045EA060E8DE60CEA135594EA0C0F08BFC3
:1031980095EA0C0F3FF43BAF94EA0C0F0AD150EAC2
:1031A80001347FF434AF95EA0C0F7FF425AF104655
:1031B80019462CE795EA0C0F06D152EA03353FF47D
:1031C800FDAE1046194622E750EA410618BF52EAFA
:1031D80043067FF4C5AE50EA41047FF40DAF52EACE
:1031E80043057FF4EBAE12E74FEA4102B2F1E04348
:1031F80024BFB3F5001CDCF1FE5C0DD901F0004CD6
:103208004FEAC0024CEA5070B2F1004F40EB830025
:1032180008BF20F00100704711F0804F21D113F151
:103228003872BCBF01F00040704741F480114FEA8A
:103238005252C2F11802C2F1200C10FA0CF320FA13
:1032480002F018BF40F001004FEAC1234FEAD32330
:1032580003FA0CFC40EA0C0023FA02F34FEA43039A
:10326800CCE77FEA625307D150EA01331EBF4FF023
:10327800FE4040F44000704701F0004040F0FE403E
:1032880040F40000704700BF80F0004002E000BF3B
:1032980081F0004142001FBF5FEA410392EA030F39
:1032A8007FEA226C7FEA236C6AD04FEA1262D2EB83
:1032B8001363C1BFD218414048404140B8BF5B4288
:1032C800192B88BF704710F0004F40F4000020F021
:1032D8007F4018BF404211F0004F41F4000121F037
:1032E8007F4118BF494292EA030F3FD0A2F1010281
:1032F80041FA03FC10EB0C00C3F1200301FA03F1BF
:1033080000F0004302D5494260EB4000B0F5000FE1
:1033180013D3B0F1807F06D340084FEA310102F1A0
:103328000102FE2A51D2B1F1004F40EBC25008BF52
:1033380020F0010040EA03007047490040EB00001C
:1033480010F4000FA2F10102EDD1B0FA80FCACF14B
:10335800080CB2EB0C0200FA0CF0AABF00EBC2504A
:1033680052421843BCBFD0401843704792F0000F38
:1033780081F4000106BF80F400000132013BB5E78B
:103388004FEA41037FEA226C18BF7FEA236C21D001
:1033980092EA030F04D092F0000F08BF0846704766
:1033A80090EA010F1CBF0020704712F07F4F04D134
:1033B800400028BF40F00040704712F100723CBF47
:1033C80000F50000704700F0004343F0FE4040F471
:1033D800000070477FEA226216BF08467FEA23632F
:1033E8000146420206BF5FEA412390EA010F40F41A
:1033F800800070474FF0000304E000BF10F0004366
:1034080048BF40425FEA000C08BF704743F096434C
:1034180001464FF000001CE050EA010208BF704767
:103428004FF000030AE000BF50EA010208BF7047EE
:1034380011F0004302D5404261EB41015FEA010C03
:1034480002BF84460146002043F0B64308BFA3F1FB
:103458008053A3F50003BCFA8CF2083AA3EBC253DD
:1034680010DB01FA02FC634400FA02FCC2F12002FC
:10347800BCF1004F20FA02F243EB020008BF20F033
:103488000100704702F1200201FA02FCC2F1200299
:1034980050EA4C0021FA02F243EB020008BF20EA8E
:1034A800DC707047014B1868704700BF240000208B
:1034B80003460244934200D1704703F8011BF9E721
:1034C80030B5141E05469BB0184605DA8B234FF01D
:1034D800FF302B601BB030BD4FF40273ADF80C30D9
:1034E8000CBF234604F1FF33029305934FF6FF7395
:1034F80000910491ADF80E3002461E9B694628469D
:1035080000F072F8431CBCBF8B232B60002CE1D069
:103518000022009B1A70DDE707B5009313460A46A0
:10352800014603480068FFF7CBFF03B05DF804FBD2
:10353800240000202DE9F0478E6882469E420C4602
:103548009046994637D88A8912F4906F31D0022371
:10355800256809696F1A656905EB450595FBF3F55B
:1035680009F101033B449D4238BF1D46530530D540
:10357800294600F035FB064650B90C234FF0FF30C2
:10358800CAF80030A38943F04003A381BDE8F0875F
:103598003A46216900F0B4FAA38923F4906343F012
:1035A8008003A38126613E4426604E466561ED1B7B
:1035B800A5604E4500D94E4632464146206800F087
:1035C800AAFAA36800209B1BA36023681E442660F8
:1035D800DCE72A4600F05EFB06460028E2D12169B6
:1035E800504600F0B1FAC8E72DE9F04F9DB00393BB
:1035F8008B8980461D060C4616460FD50B696BB99C
:10360800402100F0EDFA2060206128B90C23C8F8A9
:1036180000304FF0FF30C7E0402363610023099377
:1036280020238DF8293030234FF0010B8DF82A30F4
:1036380037463D4615F8013B0BB1252B3ED1B7EB7C
:10364800060A0BD05346324621464046FFF772FF22
:10365800013000F0A480099B534409933B78002B68
:1036680000F09D8000234FF0FF32CDE9052304933D
:1036780007938DF853301A932F46052217F8011B2C
:103688004F4800F02FFA049BD0B9D90644BF202236
:103698008DF853201A0744BF2B228DF853202A781F
:1036A8002A2A15D02F4600200A25079A394611F8EC
:1036B800013B303B092B4DD9B8B10FE02F46B8E795
:1036C8003F4A3D46801A0BFA00F018430490D3E7AE
:1036D800039A111D12680391002A01DB079204E086
:1036E800524243F00203079204933B782E2B0CD1ED
:1036F8007B782A2B33D1039B02371A1D1B68039250
:10370800002BB8BF4FF0FF3305932E4D03223978B5
:10371800284600F0E7F938B14023401B03FA00F0CF
:10372800049B0137034304933978062226487E1CFC
:103738008DF8281000F0D6F9002838D0234B13BB99
:10374800039B073323F0070308330393099B4B4478
:1037580009936DE705FB023201200F46A6E7002317
:103768000A25194601370593384610F8012B303AD7
:10377800092A03D9002BC8D00591C6E705FB01210A
:1037880001230746F0E703AB00932246104B04A938
:103798004046AFF30080B0F1FF3F8146D6D1A38900
:1037A8005B063FF536AF09981DB0BDE8F08F03AB57
:1037B80000932246064B04A9404600F081F8EAE748
:1037C8007B3E0008813E0008853E0008000000009E
:1037D8003D3500082DE9F04791461F468A680B6978
:1037E80006469342B8BF1346C9F8003091F8432003
:1037F8000C46DDF8208012B10133C9F80030236887
:10380800990642BFD9F800300233C9F8003025685C
:1038180015F0060507D104F1190AE368D9F8002064
:103828009B1AAB4229DC94F843302268003318BF56
:10383800012392062ED404F1430239463046C0478C
:10384800013021D02368E56803F00603042B18BF74
:103858000025D9F800204FF0000908BFAD1AA36869
:10386800226908BF25EAE5759342C4BF9B1AED1883
:103878001A344D451AD1002008E001235246394632
:103888003046C047013003D14FF0FF30BDE8F08724
:103898000135C2E73020E11881F843005A1C94F83A
:1038A80045102244023382F84310C4E7012322461C
:1038B80039463046C0470130E6D009F10109D8E75A
:1038C8002DE9F04301F1430C0C46097E85B06E29C1
:1038D8001746064698460C9A00F0B38022D863290A
:1038E80036D00AD8002900F0B980582900F0838022
:1038F80004F1420584F8421032E0642901D06929B4
:10390800F6D120681368050603F104012AD51B685F
:103918001160002B03DA2D225B4284F843206F48A4
:103928000A2239E0732900F09D8008D86F2920D039
:103938007029DDD1236843F02003236003E0752953
:1039480017D07829D4D17823654884F8453055E0D4
:10395800136804F14205191D1B68116084F8423090
:1039680001238CE01B6810F0400F116018BF1BB2D8
:10397800CFE713682568181D1060280601D51B6855
:1039880002E06806FBD51B886F2914BF0A220822AB
:103998005248002184F843106568002DA560C0F2E4
:1039A8009580216821F004012160002B3DD1002D74
:1039B80040F08E806546082A0BD12368DB0708D5BE
:1039C800236962689A42DEBF302305F8013C05F19D
:1039D800FF35ACEB05032361CDF800803B4603AA15
:1039E80021463046FFF7F6FE01304DD14FF0FF304B
:1039F80005B0BDE8F083394884F84510136821689C
:103A08001D1D1B6815600A060BD5CA0744BF41F087
:103A1800200121601BB9226822F0200222601022B6
:103A2800B7E74D0648BF9BB2EFE76546B3FBF2F137
:103A380002FB1133C35C05F8013D0B460029F5D1A3
:103A4800B9E713682568181D6169106028061B68A6
:103A580001D5196002E06A06FBD519800023654686
:103A68002361B9E71368191D11601D686268002198
:103A7800284600F037F808B1401B6060636823618E
:103A8800002384F84330A7E723692A46394630469D
:103A9800C0470130AAD023689B0713D4E068039B72
:103AA8009842B8BF1846A3E701234A46394630462C
:103AB800C04701309AD00135E368039A9B1AAB429C
:103AC800F2DCEBE7002504F11909F5E7002BACD18E
:103AD800037804F1420584F842306CE78C3E000814
:103AE8009D3E000810B5C9B202449042034601D178
:103AF800002303E01C7801308C42F6D1184610BD33
:103B080010B5431E0A44914200D110BD11F8014B73
:103B180003F8014FF7E7884210B501EB020307D815
:103B2800421E99420AD011F8014B02F8014FF8E7FA
:103B38008342F5D98118D21AD34200D110BD13F8A7
:103B4800014D01F8014DF7E738B50546002943D086
:103B580051F8043C0C1F002BB8BFE41800F0D0F853
:103B68001E4A1368104633B9636014602846BDE8DE
:103B7800384000F0C6B8A3420BD9216862189342B6
:103B880001BF1A685B685218226063600460EDE741
:103B980013465A680AB1A242FAD919685818A042BD
:103BA8000BD120680144581882421960DED1106890
:103BB8005268014419605A60D8E702D90C232B6077
:103BC800D4E7206821188A4201BF11685268091891
:103BD800216062605C60C9E738BD00BFFC0100205D
:103BE80070B5CD1C25F0030508350C2D38BF0C2504
:103BF800002D064601DBA94203D90C2333600020BF
:103C080070BD00F07DF8214A1468214691B9204C16
:103C180023681BB9304600F063F820602946304617
:103C280000F05EF8431C24D10C233046336000F0CA
:103C380068F8E4E70B685B1B18D40B2B0FD90B60F3
:103C4800CC18CD50304600F05CF804F10B00231D71
:103C580020F00700C31AD3D05A42E250D0E74B688D
:103C68008C4216BF636013600C46EBE70C4649684C
:103C7800CCE7C41C24F00304A04205D0211A304626
:103C880000F02EF80130CFD02560DBE7FC010020E2
:103C980000020020F8B5074614460E4621B9BDE8D3
:103CA800F8401146FFF79CBF22B9FFF74DFF2546A4
:103CB8002846F8BD00F026F8A0420FD22146384623
:103CC800FFF78EFF05460028F2D031462246FFF75F
:103CD80017FF31463846FFF737FFE9E73546E7E78C
:103CE80038B50023054C054608462360FCF742FB1F
:103CF800431C02D1236803B12B6038BD04020020A5
:103D08007047704751F8043C181F002BBCBF0B5874
:103D1800C0187047537461636B206672616D653AB1
:103D28000A000000205230203D2020253038580A53
:103D380000000000205231203D2020253038580A4C
:103D480000000000205232203D2020253038580A3B
:103D580000000000205233203D2020253038580A2A
:103D68000000000020523132203D20253038580A0A
:103D780000000000204C52203D2020253038580AF1
:103D880000000000205043203D2020253038580AEC
:103D98000000000020505352203D20253038580A9A
:103DA800000000004653522F4641523A0A000000D4
:103DB8002043465352203D2020253038580A000021
:103DC8002048465352203D2020253038580A00000C
:103DD8002044465352203D2020253038580A000000
:103DE8002041465352203D2020253038580A0000F3
:103DF800204D4D464152203D20253038580A0000BC
:103E08002042464152203D2020253038580A0000E3
:103E18004D6973630A000000204C522F4558435FD8
:103E280052455455524E3D20253038580A0000005E
:103E38005B486172644661756C745D0A000000003D
:103E48005B4275734661756C745D0A005B557361FE
:103E580067654661756C745D0A00000050010000DA
:103E680050020000500300005004000051030000FD
:103E7800741032232D302B2000686C4C0065666767
:103E880045464700303132333435363738394142C8
:103E9800434445460030313233343536373839619A
:063EA80062636465660020
:103EB000785634129400002000000000000000003A
:103EC00000000000010203040607080900A24A04DA
:103ED0000101010128000020000000000000000096
:103EE00000000000000000000000000000000000D2
:103EF00000000000000000000000000000000000C2
:103F000000000000000000000000000000000000B1
:103F100000000000000000000000000000000000A1
:103F20000000000000000000000000000000000091
:0C3F3000000000000000000032547698F1
:040000050800010DE1
:00000001FF
